:020000040800F2
:10000000F80700200D01000815010008170100087D
:10001000190100081B0100081D0100080000000074
:100020000000000000000000000000001F010008A8
:10003000210100080000000023010008411C000805
:1000400027010008270100082701000827010008F0
:1000500027010008270100082701000827010008E0
:1000600027010008270100082701000827010008D0
:1000700027010008270100082701000827010008C0
:1000800027010008270100082701000827010008B0
:1000900027010008270100082701000827010008A0
:1000A0002701000827010008270100082701000890
:1000B0002701000827010008270100082701000880
:1000C0002701000827010008270100082701000870
:1000D00027010008BD1D00082701000827010008AE
:1000E0002701000827010008270100080000000080
:1000F0000000000027010008DFF80CD000F0DAFA59
:100100000048004705380008F807002006488047E7
:1001100006480047FEE7FEE7FEE7FEE7FEE7FEE7EC
:10012000FEE7FEE7FEE7FEE7C51C0008F900000851
:1001300010B5002200E0521C835C8C5CA34201D10C
:10014000002BF8D1D8B2E1B2401A10BD80EA01020A
:1001500010B502F00043400022D04A001FD0010E2B
:1001600001EB1261C0F35600C2F3560240F40000E6
:1001700042F40002A0FB022000047F39140400D0E6
:10018000401C50EA124001D44000491EC2B20C0685
:1001900004EBD010401C4008802A02D003E000206D
:1001A00010BD20F00100002900DA0020184310BD26
:1001B00030B480EA010202F0004530F0004221F044
:1001C000004013D090B1C30DD40DC2F31601C0F39B
:1001D0001600E41A41F4000140F400027D3491421B
:1001E00001D3641C00E04900002C02DA30BC00207E
:1001F00070474FF400000023914201D3891A034352
:1002000040084FEA4101F7D151B1914202D14FF07C
:10021000004105E002D24FF0010101E06FF0010161
:1002200003EBC450284430BC00F055B8C10F80EA3D
:10023000E0700844CA079623002100F055B89623C1
:100240000022114600F050B830B50B4601460020A0
:100250002022012409E021FA02F59D4205D303FA88
:1002600002F5491B04FA02F52844151EA2F1010209
:10027000F1DC30BD2DE9F05F0546002092469B463B
:1002800088460646814640241BE0284641464746AC
:10029000224600F030FA53465A46C01A914110D314
:1002A00011461846224600F017FA2D1A67EB01088E
:1002B0004F4622460120002100F00EFA17EB0009FC
:1002C0004E41201EA4F10104DFDC484631462A4697
:1002D0004346BDE8F09F0029A8BF7047401C490075
:1002E00008BF20F00100704710B4B0FA80FC00FA9B
:1002F0000CF050EA010404BF10BC704749B1CCF1C6
:10030000200421FA04F411FA0CF118BF0121214351
:100310000843A3EB0C01CB1D4FEA00614FEA10200C
:1003200042BF002010BC704700EBC35010440029AE
:10033000A4BF10BC7047401C490008BF20F001005A
:1003400010BC70472DE9FE4F804681EA0300C00FC4
:100350000C46009021F0004123F00045B8EB02006C
:10036000A94105D24046214690461C460B4602460E
:1003700023F00040104347D0270DC7F30A00C3F312
:100380000A510290401A019040286BDAC3F313001F
:1003900040F4801B0098924620B10023D2EB030A60
:1003A00063EB0B0B01985946C0F14002504600F038
:1003B00093F906460D4650465946019A00F0ABF9AE
:1003C00010EB08006141002487EA115284EAE773C8
:1003D0001A4340D0009A62B3019A012A4FEA0752A9
:1003E00015DC001B61EB02014FF0004202EA0752EC
:1003F000CDE90042001C41F5801132462B4600F049
:10040000ABF903B0BDE8F08F40462146F9E7001B89
:1004100061EB0201001C41F5801300185B412018BC
:10042000A2F5001747EB030140EAD570B6196D41FC
:1004300011E06D084FEA360645EAC0754FEA0752EB
:10044000001B61EB0201001C41F5801149084FEAD5
:1004500030000019514132462B4603B0BDE8F04F41
:1004600000F06BB90098012240000023D0EB02029B
:1004700063EBE073009821464FEAE074B8EB0000AC
:1004800061EB0401E9E783F000435BE781F00041A1
:1004900058E72DE9FE4F81EA030404F0004421F0FF
:1004A000004100944FF0000B23F0004350EA010498
:1004B0005ED052EA03045BD0C3F30A54C1F30A5579
:1004C0002C44A4F2F3340194A0FB0254C1F31301B1
:1004D00041F48011C3F3130343F4801301FB02447E
:1004E00000FB034E840A970A44EA815447EA835783
:1004F000A4FB076802958D0A05FB07854FEA932C3C
:1005000004FB0C542705029D4FEA065847EA1637AC
:10051000B5EB08056EEB070C870E920E47EA8117C4
:1005200042EA8312A7FB0201B6EB0B0164EB000465
:100530002B0D43EA0C335E1844EB1C50DA4651464F
:10054000E7FB0201C5F313044FEA0B3343EA1453EC
:100550004FEA0432019C43EA0603A4F10C0402941E
:10056000009CCDE900B400F0F7F803B0BDE8F08FCF
:1005700000200146F9E72DE9F04D81EA030404F07B
:10058000004B21F0004514464FF0000A23F00041D3
:1005900050EA050220D054EA01021DD0C5F30A57E3
:1005A0000246C5F31303C1F31300C1F30A5640F426
:1005B000801543F48013A7EB0608101BD64608F2FB
:1005C000FD3873EB050002D308F1010801E0921831
:1005D0005B41B8F1000F03DA00200146BDE8F08D61
:1005E00000204FF48011064684460EE0171B73EB83
:1005F000050705D3121B63EB050306434CEA010C08
:1006000049084FEA300092185B4150EA0107EDD1EA
:1006100052EA030012D082EA040083EA050108438B
:1006200005D0101BAB4106D20122002306E00022B8
:100630004FF0004302E06FF0010253101AEB060086
:100640004CEB085110EB0A0041EB0B01BDE8F04DFB
:1006500000F073B8C1F30A52C1F3130140F2FF3343
:1006600041F480119A4202DA00200146704740F2BC
:1006700033439A42A2F2334202DC524200F03BB8CA
:1006800000F02AB830B5041E71F1000404DB4FF00D
:100690000044404264EB0101141E73F1000405DBC9
:1006A0001C464FF00043524263EB0403994208BFDB
:1006B000904230BD064C074D06E0E06840F0010373
:1006C00094E8070098471034AC42F6D3FFF718FDC2
:1006D000DC6F0008FC6F0008202A04DB203A00FAD7
:1006E00002F1002070479140C2F1200320FA03F389
:1006F000194390407047202A04DB203A21FA02F087
:100700000021704721FA02F3D040C2F1200291404B
:10071000084319467047202A06DBCB17203A41FAD6
:1007200002F043EAE07306E041FA02F3D040C2F17E
:100730002002914008431946704710B5141E73F10A
:10074000000408DA401C41F1000192185B411A4391
:1007500001D120F0010010BD2DE9F04D92469B46DD
:1007600011B1B1FA81F202E0B0FA80F22032904683
:10077000FFF7B2FF04460F4640EA0A0041EA0B01C8
:1007800053465A46084313D0114653EA010019D084
:10079000C8F140025046FFF7AEFF05460E465046F0
:1007A00059464246FFF798FF084305D0012004E070
:1007B00020463946BDE8F08D0020054346EAE07644
:1007C0002C4337430A986305E40AA0EB0800002293
:1007D000FD0A44EA47540A3002D500200146E9E701
:1007E000010510196941DDE9084500196941BDE8B5
:1007F000F04DA2E72DE9F041024600250026002039
:1008000000230024002791F803C00CF00F0591F895
:1008100003C00CF0100CBCF1000F03D091F802C023
:100820004CEA050591F800C0BCF1000F31D0146806
:1008300000202BE04FF0010C0CFA00F3B1F800C0DF
:100840000CEA03069E4220D183004FF00F0C0CFAF5
:1008500003F7BC4305FA03FC4CEA040491F803C017
:10086000BCF1280F06D14FF0010C0CFA00FCC2F8C5
:1008700014C00AE091F803C0BCF1480F05D14FF055
:10088000010C0CFA00FCC2F810C0401C0828D1D39F
:100890001460B1F800C0BCF1FF0F34DD54680020D3
:1008A0002EE000F1080C4FF0010808FA0CF3B1F843
:1008B00000C00CEA03069E4221D183004FF00F0CCA
:1008C0000CFA03F7BC4305FA03FC4CEA040491F864
:1008D00003C0BCF1280F05D100F1080C08FA0CF890
:1008E000C2F8148091F803C0BCF1480F07D100F1A1
:1008F000080C4FF0010808FA0CF8C2F81080401CF0
:100900000828CED35460BDE8F081024600209368E9
:100910000B400BB1012000E0002070470246002090
:10092000D3680B400BB1012000E0002070474FF668
:10093000FF710180022181700421C17070470AB1EA
:10094000016100E04161704770B5ADF5916D002522
:1009500000200B9000260A903CA207CA07AB07C3F1
:100960003DA207CA04AB07C300F0E8FA01223DA18B
:1009700096A802F095FA044624B121463AA001F067
:10098000ABFA60E0122240A10CA802F0B3FA0446D0
:1009900024B121463FA001F09FFA4FE0214645A037
:1009A00001F09AFA0C250BAB2A4607A90CA802F015
:1009B000B2FC044600BF0BAB2A4604A90CA802F007
:1009C000AAFC044624B1214641A001F085FA35E095
:1009D000214647A001F080FA0CA802F050FA132239
:1009E00029A10CA802F086FA044624B1214629A0C8
:1009F00001F072FA22E021462EA001F06DFA18E013
:100A000000200190029003900A260AAB324601A909
:100A10000CA802F062FB04460A9828B101AA3BA088
:100A20000A9901F059FA04E021463CA001F054FA79
:100A300000E0E5E700BF0CA802F021FA002209A1BE
:100A4000104602F02DFA0DF5916D70BD48656C6C85
:100A50006F2C576F726C642157656C636F6D6520E6
:100A60004B696E67303A00000D0A665F6D6F756EF8
:100A700074204661696C2120526573756C74203D49
:100A80002025640D0A0000002F68656C6C6F2E74C1
:100A9000787400000D0A665F6F70656E20466169AC
:100AA0006C2120526573756C74203D2025640D0AFD
:100AB000000000000D0A665F6F70656E204F4B21CD
:100AC00020526573756C74203D2025640D0A00006A
:100AD0000D0A665F7772697465204661696C212032
:100AE000526573756C74203D2025640D0A0000006A
:100AF0000D0A665F7772697465204F4B212052653D
:100B000073756C74203D2025640D0A000D0A665F24
:100B1000726561643A25642C202573000D0A665FB6
:100B200072656164204661696C2120526573756C41
:100B300074203D2025640D0A0000000010B500F06F
:100B40001DF900F099F800F021F803A205A108A012
:100B500001F0C2F910BD000032333A30303A343976
:100B6000000000004465632032372032303230000C
:100B70000D0A0D0A4D4D33324C33373350465F6EFC
:100B8000342025732025730D0A0D0A0008B50121B4
:100B9000042000F04DF96846FFF7C9FE0120ADF8CA
:100BA000000048208DF8030069460448FFF722FE44
:100BB0000A220349012001F0B9F808BD00080140EC
:100BC000E10B000810B5002401210448FFF79DFE49
:100BD00008B944F00104204610BD0000000801409F
:100BE00010B5FFF7EFFF044618480078B8B994B184
:100BF000174801780078401C154A1070052923DB3E
:100C0000002011460870012010490870214611A0EB
:100C100001F062F918E000200D49087014E084B971
:100C20000B4801780078401C094A107005290BDB3D
:100C3000002011460870054908700BA001F04CF91E
:100C400002E000200249087010BD000000000020F2
:100C5000010000200D0A4B657920507265737365A1
:100C600064203A20256400000D0A4B657920526506
:100C70006C656173652E000008B50121042000F049
:100C8000D7F86846FFF753FE4FF48070ADF80000C8
:100C900003208DF8020010208DF8030069460748F4
:100CA000FFF7A8FD00224FF480710448FFF747FECC
:100CB000FA220349002001F039F808BD000801407C
:100CC000C50C000810B54FF480710848FFF726FEE8
:100CD00028B9012211020548FFF731FE05E0002284
:100CE0004FF480710148FFF72AFE10BD0008014053
:100CF00037B5194804680068B0B9102002F08CFDBF
:100D0000154908600846006820B90846006802F0E6
:100D10008FFC1FE0104800689DE80E000EC0002008
:100D20000D490968C86015E000E0E468E068002843
:100D3000FBD1102002F070FDE060E06838B1E4689B
:100D40009DE8070084E807000020E06002E0E0681A
:100D500002F06EFC3EBD000018000020024606486E
:100D6000016805E00878904201D101207047C96808
:100D70000029F7D10020F9E71800002010B500F095
:100D800077FF03F01BFE10BD70B5002100230F227A
:100D9000C47804B3194C246804F4E064C4F5E06436
:100DA000210AC1F10403CA40447804FA03F18478AB
:100DB000144021430901124C0678A155047804F02F
:100DC0001F050124AC4005786D11AD0005F1E0254B
:100DD000C5F8004109E0047804F01F050124AC4087
:100DE000084D0678761145F8264004786411A40071
:100DF00004F1E024D4F8003170BD00000CED00E0F7
:100E000000E400E080E100E010B5002807DA0A07FE
:100E1000140E054A00F00F031B1FD45403E00A0709
:100E2000130E024A135410BD18ED00E000E400E078
:100E300029B1064A92690243044B9A6104E0034ACD
:100E400092698243014B9A61704700000010024092
:100E5000F0B500210024002300250022314E7668E1
:100E600006F00C0121B1042905D008292CD105E098
:100E70002D4E06602BE02C4E066028E0294E366889
:100E8000012707EB9664274E3668C6F30256731C9B
:100E9000244E766806F480352DB9244E6643B6FBA1
:100EA000F3F606600FE01F4E766806F400362EB1AA
:100EB0001F4E6643B6FBF3F6066004E01A4E664327
:100EC000B6FBF3F6066002E0174E066000BF00BFF7
:100ED000144E766806F0F0010909164E725C066839
:100EE000D64046600F4E766806F4E061090A114E5E
:100EF000725C4668D64086600A4E766806F4605199
:100F0000C90A0C4E725C4668D640C660054E7668CB
:100F100006F44041890B084E725CC668B6FBF2F6D7
:100F20000661F0BD0010024000127A00001BB700FD
:100F300000093D001C0000202C00002010B500F02E
:100F4000D3F8104908700846007820B90EA000F0C8
:100F5000C3FF012010BD0B48017812A000F0BCFFB8
:100F600000F042FA144908604FF40071102000F0BC
:100F700019FB20B111A000F0AFFF0120EAE700202B
:100F8000E8E70000140000200D0A4661696C207437
:100F90006F20696E697469616C697A65206361723A
:100FA000640D0A000D0A696E697420636172642021
:100FB0003D2025640D0A0000100000200D0A536535
:100FC00074203531322D6279746520626C6F636BE9
:100FD0002074696D6564206F75740D0A000000004F
:100FE0002DE9F04106460C4617461048007818B91E
:100FF0004FF0FF30BDE8F081254611E00C48006855
:1010000005FB00F1112000F0CDFA08B10120F1E755
:101010004FF40071304600F031F906F500766D1C92
:10102000E019A842EAD80020E4E7000014000020FC
:101030000C000020014800687047000010000020EC
:101040000348007808B1002070470120FCE7000049
:10105000140000202DE9F04106460C4617461048C2
:10106000007818B94FF0FF30BDE8F081254611E057
:101070000C48006805FB00F1182000F093FA08B155
:101080000120F1E74FF40071304600F0C1FB06F596
:1010900000766D1CE019A842EAD80020E4E70000C1
:1010A000140000200C0000202DE9F043034600242A
:1010B000481C861A002011E015184FF00F09A9EB03
:1010C000D50705F0070C13F8079049FA0CF909F059
:1010D000010808FA00F949EA0404401CB042EBD3C5
:1010E0002046BDE8F083000070B500F0F3F800255D
:1010F00004E0FF2000F050F9681CC5B2102DF8DBA9
:101100000021084600F04EFA012801D0002070BDF1
:1011100000F0E6FA0446012C03D100F06BF8C0B2EF
:10112000F5E7052C03D100F025F8C0B2EFE702A0E7
:1011300000F0D2FE0020EAE70D0A4E6F7420696EBF
:101140002069646C652073746174652061667465E0
:10115000722073656E64696E6720434D44382028A1
:101160006E6F7420616E20534420636172643F2966
:101170000D0A000010B5002412E00021372000F015
:1011800011FA0021292000F00DFA40B94FF4007047
:101190000849086008A000F09FFE012010BD641CF3
:1011A00041F288308442E8D309A000F095FE002087
:1011B000F4E700000C0000200D0A496E69743A2023
:1011C000534544434152445F56310D0A000000002C
:1011D0000D0A54696D656F75742077616974696E65
:1011E0006720666F722076312E7820636172640DFD
:1011F0000A00000010B5002419E0322000F016FDAE
:1012000000F018FA0021372000F0CCF94FF08041AF
:10121000292000F0C7F948B900F00CFA08A000F046
:101220005BFE01200B490860022010BD641C41F2E6
:1012300088308442E1D308A000F04EFE0020F4E79D
:101240000D0A496E69743A205344434152445F5633
:10125000320D0A000C0000200D0A54696D656F758F
:10126000742077616974696E6720666F72207632C8
:101270002E7820636172640D0A00000070B5054687
:101280000E4601224FF6FE71114800F01EFB00BF12
:10129000FF2000F081F8FE28FAD1002404E0FF20AE
:1012A00000F07AF82855641CB442F8D3FF2000F00F
:1012B00073F8FF2000F070F800224FF6FE7104482A
:1012C00000F003FBFF2000F067F8002070BD000075
:1012D0000030014000B585B001210520FFF7A8FDD1
:1012E00001210803FFF7A4FD04A8FFF720FBB020AD
:1012F000ADF8100003208DF8120018208DF81300AF
:1013000004A92348FFF776FA04A8FFF710FB402052
:10131000ADF8100003208DF8120048208DF813005E
:1013200004A91B48FFF766FA684600F073FB042027
:10133000ADF800000020ADF802000820ADF8040070
:101340000020ADF806000120ADF808000020ADF83F
:101350000A004FF48070ADF80C000020ADF80E00CC
:1013600069460C4800F0F8FA01210A4800F0B8FA82
:101370001021084800F08CFA0821064800F088FA8D
:1013800000224FF6FE71034800F09FFA05B000BD41
:10139000000801400030014070B504460025214698
:1013A000104800F023FB00BF01210E4800F0A4FA12
:1013B00028B928466D1C4FF6FF718842F4D30025EA
:1013C00000BF0221074800F097FA28B928466D1C93
:1013D0004FF6FF718842F4D3024800F0E9FAC0B238
:1013E00070BD0000003001402DE9F04F87B00021B2
:1013F000092000F0CFF930B132A000F06DFD0020DF
:1014000007B0BDE8F08F102101A8FFF737FF20B12A
:1014100036A000F061FD0020F2E77E227F2101A8C6
:10142000FFF742FE8046B8F1000002D0012840D10B
:101430002DE04FF40070384908603E22492101A890
:10144000FFF732FE05462F22312101A8FFF72CFEBF
:1014500081465022532101A8FFF726FE8246012033
:1014600000FA0AFB09F10200012101FA00F00690DE
:10147000681C069948430590059800FB0BF6740A12
:1014800023463246294625A000F026FD16E001201D
:101490002149086030223F2101A8FFF705FE0746D9
:1014A000781C840262022346394629A000F014FD0C
:1014B00004E035A000F010FD0020A1E700BF2046A9
:1014C0009EE700000D0A4469646E27742067657406
:1014D000206120726573706F6E73652066726F6D28
:1014E00020746865206469736B0D0A000D0A436FF0
:1014F000756C646E27742072656164206373642068
:10150000726573706F6E73652066726F6D206469AB
:10151000736B0D0A000000000C0000200D0A5344FC
:1015200020436172640D0A635F73697A653A20250E
:10153000640D0A63617061636974793A2025640DF2
:101540000A736563746F72733A2025640D0A000094
:101550000D0A5344484320436172640D0A68635F77
:10156000635F73697A653A2025640D0A636170616F
:10157000636974793A2025640D0A736563746F7228
:10158000733A2025640A0D000D0A435344207374F6
:101590007275637420756E737570706F72746564A4
:1015A0000D0A00002DE9F04105460C4601224FF6D8
:1015B000FE711F4800F089F945F04000FFF7ECFE8E
:1015C000200EFFF7E9FEC4F30740FFF7E5FEC4F382
:1015D0000720FFF7E1FEE0B2FFF7DEFE9520FFF700
:1015E000DBFE002613E0FF20FFF7D6FE074607F0DC
:1015F000800058B900224FF6FE710D4800F065F9E1
:10160000FF20FFF7C9FE3846BDE8F081761C41F2A5
:1016100088308642E7D300224FF6FE71044800F07E
:1016200054F9FF20FFF7B8FE4FF0FF30ECE7000061
:10163000003001402DE9F041002401224FF6FE71F7
:10164000264800F042F97A20FFF7A6FE200EFFF7A9
:10165000A3FE200CFFF7A0FE200AFFF79DFE204608
:10166000FFF79AFE9520FFF797FE002626E0FF2061
:10167000FFF792FE074607F08000F0B90025FF2033
:10168000FFF78AFE0506FF20FFF786FE45EA0045C4
:10169000FF20FFF781FE45EA0025FF20FFF77CFED3
:1016A000054300224FF6FE710C4800F00EF9FF20B2
:1016B000FFF772FE3846BDE8F081761C41F28830B3
:1016C0008642D4D300224FF6FE71044800F0FDF8A4
:1016D000FF20FFF761FE4FF0FF30ECE700300140E4
:1016E0001CB501224FF6FE71284800F0EEF84820A4
:1016F000FFF752FE0020FFF74FFE0020FFF74CFEE1
:101700000120FFF749FEAA20FFF746FE8720FFF7DA
:1017100043FE00242AE0FF20FFF73EFE8DF8000084
:101720009DF8000000F08000F8B9FF20FFF734FEBC
:101730008DF80100FF20FFF72FFE8DF80200FF203B
:10174000FFF72AFE8DF80300FF20FFF725FE8DF836
:10175000040000224FF6FE710C4800F0B6F8FF209E
:10176000FFF71AFE9DF800001CBD641C0848844267
:10177000D1D300224FF6FE71044800F0A6F8FF20F6
:10178000FFF70AFE4FF0FF30EEE7000000300140A7
:10179000404B4C002DE9F04105460C4601224FF626
:1017A000FE711A4800F091F845F04000FFF7F4FD93
:1017B000200EFFF7F1FDC4F30740FFF7EDFDC4F382
:1017C0000720FFF7E9FDE0B2FFF7E6FD9520FFF700
:1017D000E3FD00260AE0FF20FFF7DEFD074607F0E5
:1017E000800010B93846BDE8F081761C41F288309F
:1017F0008642F0D300224FF6FE71044800F065F8EF
:10180000FF20FFF7C9FD4FF0FF30ECE7003001404B
:1018100070B505460E4601224FF6FE711B4800F0DA
:1018200054F8FE20FFF7B8FD002403E0285DFFF721
:10183000B3FD641CB442F9D3FF20FFF7ADFDFF20D8
:10184000FFF7AAFDFF20FFF7A7FD00F01F00052806
:101850000AD000224FF6FE710C4800F036F8FF2047
:10186000FFF79AFD012070BD00BFFF20FFF794FD38
:101870000028FAD000224FF6FE71044800F025F847
:10188000FF20FFF789FD0020EDE700000030014058
:10189000082903D1028B42F008020283102903D1E8
:1018A000028B42F0100202834FF6F772914203D18D
:1018B000028B0B461A4002834FF6EF72914203D11E
:1018C000028B0B461A400283704710B51AB1038D84
:1018D0000B40038503E0038D63EA0103038510BD1C
:1018E00021B1028B42F00102028304E0028B4FF629
:1018F000FE731A400283704710B502460B4600245F
:10190000908D082807D11089184008B1012400E003
:101910000024204610BD908D002804DD908D0828FD
:1019200001DC01210FE0908D102801DC02210AE08A
:10193000908D182801DC032105E0908D1F2801DD22
:10194000908D00B904211089C0F30320884201DB87
:101950000120DFE70020DDE710B50022028B02F452
:1019600070424B884C8923430C8823431A430283DB
:10197000828B4FF6C0731A40CB89CC8823430C89E5
:1019800023431A4342F018038383028C00228B897D
:101990001A4302848B88082B07D0838B43F00403FF
:1019A0008383838B43F0080383838B88838510BDF7
:1019B0000146002000BF4A6810438A8D082A01DCD6
:1019C0008A8D12B94A6840EA02208A8D102A01DC09
:1019D0008A8D12B94A6840EA02408A8D182A01DCD1
:1019E0008A8D12B94A6840EA026070470A46838DC0
:1019F000D9B20260082900DC09B9130A0360102972
:101A000000DC09B9130C0360182900DC09B9130EB6
:101A100003607047002101804180082181800021FE
:101A2000C1800121018100214181022181810021A8
:101A3000C1817047F0B5ADF25C4D002600200090EA
:101A4000002741F6ED75012223A18BA801F028FAA9
:101A5000044624B1214621A000F03EFA38E01222CB
:101A600026A101A801F046FA044624B1214626A089
:101A700000F032FA27E021462BA000F02DFA1CE0FE
:101A8000B5F5806F04D34FF48066A5F5806501E05D
:101A90002E4600252B48C1196B46324601A801F09D
:101AA0003AFC0446374424B1214627A000F014FA3A
:101AB00005E021462CA000F00FFA002DE0D100BF78
:101AC00001A801F0DCF9002203A1104601F0E8F9B9
:101AD0000DF25C4DF0BD0000303A00000D0A665F6B
:101AE0006D6F756E74204661696C21205265737547
:101AF0006C74203D2025640D0A0000002F68656C81
:101B00006C6F2E6A706700000D0A665F6F70656EFD
:101B1000204661696C2120526573756C74203D20EC
:101B200025640D0A000000000D0A665F6F70656E87
:101B3000204F4B2120526573756C74203D20256425
:101B40000D0A0000464D00080D0A665F7772697441
:101B500065204661696C2120526573756C74203D67
:101B60002025640D0A0000000D0A665F7772697413
:101B700065204F4B2120526573756C74203D2025E4
:101B8000640D0A0010B500F001F810BD00202549D1
:101B9000096841F00101234A116000BF2149096829
:101BA00001F002010029F9D04FF480611D4A516013
:101BB0001146496821F4803151601146096821F0CD
:101BC000807111601146096821F0F84111601146D9
:101BD000096841F0E05111601321134A1160114965
:101BE000096841F080710F4A116000BF0D49096812
:101BF00001F000710029F9D00A49496821F0030178
:101C0000084A51601146496841F00201516005E0FF
:101C100004494968C1F3870000F003000228F7D1A6
:101C20007047000000100240002002400349086095
:101C300000BF024909680029FBD170470800002055
:101C400010B509480068401C07490860084600684C
:101C500000F0A2F80548006820B104480068401E62
:101C60000249086010BD00000400002008000020A8
:101C700010B586B001A8FFF7EBF84FF47A71019820
:101C8000B0FBF1F4601EB0F1807F01D301200FE0C2
:101C9000601E4FF0E02148610F214FF0FF30FFF749
:101CA000B3F800204FF0E021886107200861002090
:101CB00008B100BFFEE70021481EFFF7A5F806B0F7
:101CC00010BD000010B51548006840F00100134930
:101CD00008600846406812490840104948600846B4
:101CE0000068104908400D4908600846006820F463
:101CF000802008600846406820F4FE0048600846DE
:101D00000068C0F3130008604FF41F008860FFF7FD
:101D100039FF4FF000600449086010BD0010024018
:101D20000C00FFF8FFFFF6FE08ED00E0FEB50446EC
:101D30000D4616468DF8004000208DF801000196F2
:101D400002952046FFF70AF820B99DE80700FEF744
:101D5000CFFF02E001A000F0BFF8FEBD0D0A447500
:101D6000706C6963617465205461736B20496E64A3
:101D7000657821212100000010B50648046806E0BE
:101D8000607818B100206070A0688047E468002C7B
:101D9000F6D110BD180000200146074A106808E07F
:101DA0004268B1FBF2F302FB13120AB9012242703E
:101DB000C0680028F4D170471800002010B5022137
:101DC000084800F02AF858B1064800F071F8C4B28B
:101DD0002146054802F0DCFB0221024800F006F82B
:101DE00010BD0000003801407C00002041617047B8
:101DF00021B1826942F00102826104E082694FF6FA
:101E0000FE731A40826170470246002093680B40BF
:101E10000BB1012000E00020704702460020D3688B
:101E20000B400BB1012000E0002070471AB103699C
:101E30000B43036102E003698B43036170470000B9
:101E40002DE9F04385B004460D460026B046B14664
:101E500000272746E66926F03606A888E988084361
:101E6000298908430643E661A66926F01F06A8896A
:101E7000698908430643A6616846FEF7E9FF0B48F7
:101E8000874202D1DDF80C8001E0DDF80880286887
:101E9000B8FBF0F006092868B8FBF0F000F00F0975
:101EA0002662C4F8249005B0BDE8F08300380140F4
:101EB00001464868C0B27047CAB2026070474FF42A
:101EC00016510160302181800021C18001811821DB
:101ED00041810021818170470FB4054B10B503A9E2
:101EE000044A029800F0DAF810BC5DF814FB000018
:101EF0000D3600085C00002002E008C8121F08C16F
:101F0000002AFAD170477047002001E001C1121F7A
:101F1000002AFBD1704700002DE9FF5F82B000214D
:101F2000DDE90430020DDDF840B0034318D044F67B
:101F30001050A2F2FF3242431514119801281FD00D
:101F4000A5EB0B00401C5FEA000A4FF000064E4F65
:101F5000DFF83891B046504615D5CAF1000413E0B9
:101F6000119801244AA3012801D16FEA0B010298BC
:101F7000119AC0E90031C0E9024206B0BDE8F09F05
:101F8000CBF10000DFE704460021404A491842EB4C
:101F90000450CDE9001012E0E00707D032463B467E
:101FA00040464946FEF775FA8046894632463B462A
:101FB00010461946FEF76DFA06460F466410002CCF
:101FC000EAD1DDE90401DDE90023BAF1000F06DA08
:101FD000FEF75FFA42464B46FEF75BFA05E0FEF776
:101FE000CAFA42464B46FEF7C6FA04460E4600229F
:101FF000284BFEF747FB03D84FF0FF30014607E0C0
:102000000022254B20463146FEF79CF9FEF722FBC5
:10201000102409E0002C0ADB0A220023FEF72AF92B
:10202000039B30321A55641E50EA0102F2D1641C3F
:10203000039AC4F111031444119A012A03D0012216
:1020400008430DD10AE0084304D000204FF0110BE3
:10205000119072E7A3EB0B056D1E0DE05B4504DDEF
:102060004FF0000205F1010504E003DA4FF0000231
:10207000A5F10105002AECD002981199C0E90231BE
:10208000C0E9004579E70000000014400000F03F7F
:10209000300000000000F0430000E03F2DE9FF4F5A
:1020A00095B09B468946064600250FE2252877D144
:1020B00000242746F84A0121059400E0044316F85D
:1020C000013F203B01FA03F01042F7D130782A2873
:1020D00011D06FF02F033078A0F13002092A16D802
:1020E000059A44F0020402EB820203EB4202104420
:1020F000761C0590EFE759F8042B0592002A03DAC5
:10210000504244F40054059044F00204761C3078A8
:102110002E2816D116F8010F44F004042A280DD0F9
:102120006FF02F023078A0F13003092B09D807EBAC
:10213000870302EB4303C718761CF3E759F8047BC7
:10214000761C30786C280FD006DC4C2817D0682815
:102150000DD06A2814D104E0742810D07A280FD149
:102160000DE044F400140AE044F4801401E044F467
:1021700040147278824202D104F58014761C761CD9
:10218000307866280BD013DC582877D009DC00287B
:1021900075D04528F6D04628F4D047281AD19DE1BD
:1021A00018E0632835D0642879D0652812D195E1EC
:1021B000702873D008DC6728F1D069286FD06E28AA
:1021C0000DD06F2806D1B5E073282CD0752875D0B6
:1021D000782874D05A46179990476D1C75E1C4F35E
:1021E0000250022809D003280DD0D9F80010042885
:1021F0000DD00D6009F1040967E1D9F80010EA1764
:10220000C1E90052F6E7D9F800100D80F2E70D7031
:10221000F0E719F8041B8DF8001000208DF801007C
:10222000EA46012003E059F804AB4FF0FF306107A4
:102230004FF0000102D40DE008F101018846B942D7
:102240000FDA8045F8DB1AF808100029F4D108E00D
:1022500008F1010188468142FADB1AF808100029CA
:10226000F6D105985B46A0EB080721463846179A39
:1022700000F094FA284400EB080507E04DE029E15E
:102280000DE01AF8010B5A4617999047B8F101086A
:10229000F7D25B4621463846179A13E142E00A22FC
:1022A0000092C4F302524FF0000A022A08D059F8F3
:1022B00004CB032A4FEAEC710AD00DE029E02AE0B2
:1022C00009F1070121F00702F2E802C1914609E095
:1022D0000FFA8CFC4FEAEC71042A03D14FFA8CFC04
:1022E0004FEAEC71002907DA0A460021DCF1000C04
:1022F00061EB02012D2202E0220504D52B228DF88C
:102300000420012203E0E20701D02022F7E79046F3
:1023100059E00A2102E010220DE010214FF0000ADE
:1023200000910BE010224FF0000A44F0040408274B
:10233000009203E008224FF0000A0092C4F3025218
:10234000022A05D059F804CB0021032A08D009E05D
:1023500009F1070121F00702F2E802C1914605E008
:102360001FFA8CFC042A01D10CF0FF0C4FF000087E
:10237000220728D5702806D0009B83F0100353EA6B
:102380000A0305D00EE040228DF80420012208E067
:102390005CEA010206D030228DF804208DF8050099
:1023A00002229046009B83F0080353EA0A030AD1F5
:1023B0005CEA010201D1620705D530228DF80420C4
:1023C0004FF001087F1E582804D034A003900EA8B7
:1023D00002900DE036A0F9E753466046009AFDF7FB
:1023E00049FF84460398825C0298401E0290027066
:1023F0005CEA0100F0D1029806A9081A00F1200A4F
:10240000600702D524F4803400E00127574502DD3F
:10241000A7EB0A0000E0002000EB0A0100900598FD
:102420004144401A0590E00306D45B462146179AC2
:10243000059800F0B3F90544002706E001A85A46C4
:10244000C05D179990476D1C7F1C4745F6DBE00384
:102450000CD55B462146179A059800F09FF9054474
:1024600004E030205A46179990476D1C0099481E89
:1024700000900029F5DC08E0029802995A4600789D
:10248000491C0291179990476D1CBAF10001AAF1FD
:10249000010AF1DC65E10000092801003031323326
:1024A0003435363738396162636465660000000090
:1024B000303132333435363738394142434445467A
:1024C0000000000000F058F90544761C3078002820
:1024D0007FF4ECAD19B02846BDE8F08F620700D458
:1024E000062709F1070222F0070CFCE80223E14667
:1024F00003F000485FEA080C02D00FF2702C0DE0E8
:102500005FEA045C02D50FF2682C07E05FEAC47C46
:1025100002D00FF2602C01E0AFF2700C4FF0FF38E8
:1025200023F00043CDF850C065280CD006DC4528C8
:1025300009D046281DD047283DD13DE0662818D057
:1025400067287ED138E00021112F01DB112000E047
:10255000781CCDE9000106A90EA8FFF7DDFCDDE936
:102560000F010E9A03910021009207F1010A0491D4
:102570004DE04FF000400097CDE9011006A90EA8EC
:10258000FFF7CAFCDDE90F0203920E9B11990022AE
:10259000DDF80CA00093049211B9791C00EB010A3C
:1025A000B7EB0A0004D4C0F1FF3007F1010A049030
:1025B000AAEB0700019044E0012F00DA0127002177
:1025C000112F01DD112000E03846CDE9000106A9F8
:1025D0000EA8FFF7A1FCDDE90F010E9A039100217F
:1025E00004910092BA4621070CD40399514500DAB0
:1025F0008A46BAF1010F05DD009AAAF10101515C8A
:10260000302908D0B84202DA10F1040F06DA0121AD
:10261000CDE9011015E0AAF10101E9E7002805DC88
:10262000049901440491AAEB000102E0411C5145C8
:1026300000DD8A460499401A401C01904FF000408A
:102640000290200704D40198504501DBCDF80480A6
:1026500000208DF84F0002980DF14F07B0F1004FA8
:1026600025D02B200E9002984FF0020800280CDA9B
:10267000404202902D200E9007E00A210298FDF7BB
:10268000E3FD3031029007F8011DB8F10001A8F117
:102690000108F2DC02980028EFD1791E0E9808702C
:1026A000307800F0200040F0450007F8020D12A835
:1026B000C01B00F107081498007800B1012000EB5E
:1026C0000A01019801EBE07105984144401A401E4F
:1026D0000590E00306D45B462146179A059800F062
:1026E0005DF805441498007818B15A461799904738
:1026F0006D1CE00324D55B462146179A059800F02F
:102700004DF805441CE00498002807DBDDE90301CF
:10271000884203DD0098405C179901E0179930204A
:102720005A469047049805F10105401C0490019811
:10273000401E019004D12E205A46179990476D1CD7
:10274000BAF10001AAF1010ADDDC05E017F8010B7E
:102750005A46179990476D1CB8F10001A8F101087D
:10276000F4DC5B462146179A0598ABE62D00000085
:102770002B000000200000002DE9F0410446002558
:102780001E461746880404D405E039462020B04789
:102790006D1C641EF9D52846BDE8F0812DE9F04195
:1027A000044600251E469046C80301D5302700E0A8
:1027B0002027880404D505E041463846B0476D1C03
:1027C000641EF9D52846BDE8F081000070B50446C6
:1027D0000D460020E070401EE0622946204601F0D0
:1027E000CDF908B1042070BD04F22E2001F004F8E8
:1027F0004AF65521884201D00320F4E700BF94F83F
:102800003000E92807D094F83000EB2803D094F882
:102810003000E82811D1032209A104F1660001F07B
:1028200031F808B90020DEE7052206A104F1820094
:1028300001F028F808B90020D5E70220D3E700000E
:10284000464154004641543332000000024600E045
:10285000521C107810B110788842F9D11078704766
:102860000246891E5069801E884201D800207047A8
:102870005389906A03FB0100F9E72DE9F04782468E
:102880008846DAF80040B8F1000F06D1E76817B1C2
:102890006069B84215D8012713E04146504600F060
:1028A000EFFE0546022D02D20120BDE8F087681C2C
:1028B00008B92846F9E76069A84201D92846F4E733
:1028C0004746206908B90020EFE70026474518D1A0
:1028D0007E1C6069B04200D802263146504600F0A6
:1028E000CFFE0546012D01D0681C08B92846DCE75B
:1028F0003DB1E568022D03D36069A84200D92F4697
:102900000026E6B93E4600BF761C6069B04204D896
:102910000226BE4201D90020C7E73146504600F0EA
:10292000AFFE054605B909E0012D01D0681C08B9C4
:102930002846BAE7BE42E7D10020B6E700BF4FF015
:10294000FF323146204601F033F98146B9F1000FDC
:1029500008D1B8F1000F05D032464146204601F0BB
:1029600027F98146B9F1000F0DD1E660D4E90410D2
:10297000801E814202D82069401E2061207940F0EB
:102980000100207107E0B9F1010F02D14FF0FF30D3
:1029900000E001200646304687E700002DE9F35F9E
:1029A0008946D9F80080009800F120050B222021EB
:1029B000284600F086FF0020074606464FF0080B29
:1029C00000BF3046761C18F80040202C00DC4AE09E
:1029D0002F2C01D05C2C0AD100E0761C18F80600E0
:1029E0002F28FAD018F806005C28F6D03BE02E2CF1
:1029F00001D05F450BD3BBF10B0F01D02E2C02D0C1
:102A00000620BDE8FC9F08274FF00B0BD9E72046B6
:102A100000F046F8A8B13046761C18F800A05046E1
:102A200000F058F818B1ABF10100B84201D8062007
:102A3000E7E738467F1C2C5438467F1C05F800A079
:102A400010E0214612A0FFF701FF08B10620D8E7E9
:102A5000612C04DB7A2C02DCA4F12000C4B23846DD
:102A60007F1C2C54ADE700BF08EB0600C9F800003E
:102A70000FB90620C5E72878E52801D10520287080
:102A8000202C01DC042000E00020E8720020B8E7E0
:102A9000222A2B2C3A3B3C3D3E3F5B5D7C7F000075
:102AA00001460B48007888420FDC0948407888428C
:102AB00001DB0120704706488078884205DC044825
:102AC000C078884201DB0120F4E70020F2E7000033
:102AD000B86D0008014610480079884219DC0E489C
:102AE0004079884201DB012070470B488079884299
:102AF00005DC0948C079884201DB0120F4E706487B
:102B0000007A884205DC0448407A884201DB0120D3
:102B1000EAE70020E8E70000B86D00082DE9F04181
:102B200004460E46D4F800800021204600F00FF93C
:102B30000546EDB9002700BF4046A16901F01EF827
:102B4000054605B113E0E0690078E52802D0E069A8
:102B5000007820B9781C0746B04201D107E0002771
:102B60000121204600F070F80546002DE4D000BF9A
:102B7000042D00D107252846BDE8F0812DE9F04756
:102B800004468946204602F09BF810B10120BDE8BA
:102B9000F08749462046FFF763FE0646E6624FF49B
:102BA0000072002104F1300000F08BFE04F13008C7
:102BB0000127002500E03D446089A84207D9721929
:102BC00060783B46414600F049F90028F3D060891F
:102BD000A84201D00120DAE70020D8E72DE9F04132
:102BE000044627680021204600F0B1F8054615B1DB
:102BF0002846BDE8F08100BF3846A16900F0BEFF5D
:102C0000054605B11DE0E06906780EB9042518E017
:102C1000E069C07A00F03F00A071E069C07A00F07E
:102C2000080038B90B2204F12001E06900F02AFE07
:102C300000B906E00021204600F006F80546002D08
:102C4000DAD000BF2846D4E72DE9F0410446884693
:102C50002768206900F12006B6F5001F01D3002087
:102C6000A061A06910B90420BDE8F081C6F3080096
:102C7000002845D1A069401CA061606938B9388935
:102C8000B0EB561F3CD80020A0610420ECE7788907
:102C9000401E00EA562098BB2046616900F0F0FC17
:102CA0000546012D01D80220DEE7681C08B9012085
:102CB000DAE77869A8421DD8B8F1000F03D10020E7
:102CC000A0610420D0E720466169FFF7D6FD0546E4
:102CD0000DB90720C8E7012D01D10220C4E7681C07
:102CE00008B90120C0E729463846FFF747FF08B179
:102CF0000120B9E7656129463846FFF7B1FDA061BB
:102D00002661C6F3080107F130000844E0610020A5
:102D1000AAE770B50446266801212046FFF7FEFEAB
:102D2000054695B93046A16900F028FF054665B90A
:102D300020220021E06900F0C4FD0B2204F12001F3
:102D4000E06900F0B1FD0120F070284670BD2DE96A
:102D5000F04104460D462668B5F5001F02D205F085
:102D60001F0010B10220BDE8F0812561A7681FB9DE
:102D70003078032800DB776A47B93089B0EB551FFC
:102D800001D80220EFE7706AA0611CE070894FEA69
:102D9000402811E03946204600F072FC0746781CB6
:102DA00008B90120DFE7022F02D37069B84201D8C9
:102DB0000220D8E7A5EB08054545EBD23946304659
:102DC000FFF74EFDA0616761A06908B90220CAE75C
:102DD000A06900EB5520A061C5F3080106F13000A1
:102DE0000844E0610020BEE70146002070472DE95D
:102DF000F04107460D461446002635B1012D05D099
:102E0000022D07D0032D0CD108E00CE0FEF712F9DB
:102E1000208008E04FF40070208004E00120208032
:102E200001E0042600BF00BF3046BDE8F0812DE977
:102E3000F04107460C4615461E46324629462046B6
:102E4000FEF7CEF810B10420BDE8F0810020FBE7CA
:102E500010B50446FEF7F4F8C0B210BD2DE9F041FC
:102E600007460C4615461E46324629462046FEF7C2
:102E7000F1F810B10420BDE8F0810020FBE738B57F
:102E80000546284600F0F7F904463CB9694628464D
:102E900001F03BFF04460CB900202860204638BDF5
:102EA000F7B582B016460398019001A800F05EFCC9
:102EB0000546002D02DA0B2005B0F0BD0C4850F895
:102EC00025400CB100202070029810B1002002991A
:102ED00008700749029841F825000EB90020EBE779
:102EE000002202A903A800F0F5FC07463846E3E7F4
:102EF000540000202DE9F74F8EB0044616461CB949
:102F0000092011B0BDE8F08F06F03F06324602A955
:102F10000FA800F0DFFC0546002D7DD1029803903C
:102F200003A80F9900F022FB05462DB99DF8370044
:102F300000F0800000B1062506F01C00002850D0EB
:102F400045B1042D03D103A8FFF7E3FE054646F083
:102F500008060AE09DF8120000F0110008B10725EC
:102F600003E006F0040000B10825002D4AD106F068
:102F70000800002846D00A99029800F01EFC8146FD
:102F800000F0EEFB01900A9901F10E00019901F0A9
:102F90003DFE20200A99C87200220A99029801F089
:102FA00023FE0A9901F11C00002101F02FFE0120EF
:102FB0000299C870B9F1000F24D00298D0F82CA063
:102FC0000022494603A800F08FFE0546D5B95146B8
:102FD000029800F0D3FD0546A9F101000299C860EE
:102FE00010E07DB99DF8120000F0100008B1042532
:102FF00008E006F0020028B19DF8120000F0010080
:1030000000B107255DB906F0080008B146F040069A
:103010000298C06A206200E04CE00A986062002DCD
:1030200056D10A99029800F0C8FBA0600A9901F1F4
:103030001C0000F0D5FBE060029820600298C08878
:10304000A080267400206074E06160614FF400721B
:10305000002104F1280000F034FC06F0200048B301
:10306000E06838B3E0686061029840894FEA402B1D
:10307000A768D4F80C800CE03946204600F000FB2D
:103080000746012F00D80225781C00B90125A8EBBE
:103090000B080DB9D845EFD8A7615DB9C8F3080092
:1030A00040B139460298FFF7DBFB8246BAF1000FC8
:1030B00001D102250CE00AEB5820E061E269029997
:1030C0004878012304F12801FFF7B1FE00B1012582
:1030D0000DB100202060284613E72DE9FF4F85B091
:1030E000044615469A46DDF818B00020CAF80000DC
:1030F00003A9204601F009FE0490049810B9607CF1
:10310000049018B1049809B0BDE8F08F207C00F05D
:10311000010008B90720F6E76169E068401A0190EC
:103120000198854200D9019DA0E0A08AC0F3080063
:1031300000287ED103984089401E616900EA512928
:10314000B9F1000F17D1606910B9A068029004E0CE
:103150002046A16900F094FA02900298022802D257
:1031600002206074CFE70298401C10B901206074FF
:10317000C9E70298A061A1690398FFF771FB0646B1
:1031800016B902206074BEE74E444FEA5528B8F1E4
:10319000000F29D009EB080003994989884203D917
:1031A00003984089A0EB09080399487843463246C2
:1031B0005946FFF73CFE10B101206074A3E7207C64
:1031C00000F0800068B1E069801B404509D2E169E8
:1031D000891B0BEB41204FF4007204F1280100F031
:1031E00063FB4FEA482737E0E069B04220D0207CFB
:1031F00000F0800078B1E26903994878012304F176
:103200002801FFF72BFE10B1012060747BE7207CC2
:1032100000F07F002074039948780123324604F1BE
:103220002801FFF704FE18B1012060746BE700E08D
:10323000E661A08AC0F30800C0F50077AF4200D96C
:103240002F46A08AC0F3080204F1280011183A465C
:10325000584600F029FB00BFED1BDAF800003844A7
:10326000CAF80000BB44606938446061002D7FF4F7
:103270005CAF002047E7F8B504466946204601F0F8
:1032800044FD0646002E44D1207C00F0400000287A
:103290003FD0207C00F0800070B1E269009948784E
:1032A000012304F12801FFF7D9FD08B10120F8BD81
:1032B000207C00F07F00207400F052FA0746216A5B
:1032C000009800F05BFC06461EBB656AE87A40F099
:1032D0002000E8722946A268206801F085FC05F10B
:1032E0001C00E16801F092FC394605F1160001F07E
:1032F0008DFC002105F1120001F094FC01200099E1
:10330000C870009801F094FC0646207C00F0BF00D5
:1033100020743046CBE72DE9FF4F83B004461546B5
:103320009B46049800900020CBF8000001A920469D
:1033300001F0EBFC0290029810B9607C029018B189
:10334000029807B0BDE8F08F207C00F0020008B9B9
:103350000720F6E700BF606928446169884202D20D
:103360006069C0F1FF35BBE0A08AC0F30800002807
:1033700075D101984089401E616900EA512ABAF16D
:10338000000F1ED1606938B9A76857B900212046DF
:10339000FFF773FA074604E02046A169FFF76DFACC
:1033A000074607B99FE0012F02D102206074C8E7E9
:1033B000781C10B901206074C3E7A761A06800B948
:1033C000A760207C00F0800078B1E269019948781C
:1033D000012304F12801FFF741FD10B101206074C1
:1033E000AFE7207C00F07F002074A1690198FFF70F
:1033F00037FA064616B902206074A2E756444FEA2F
:103400005529B9F1000F2BD00AEB09000199498920
:10341000884203D901984089A0EB0A0901994878AC
:103420004B4632460099FFF719FD10B10120607438
:1034300087E7E069801B48450ED2E069801B009A4F
:1034400002EB40214FF4007204F1280000F02CFA46
:10345000207C00F07F0020744FEA49282BE013E025
:10346000E069B0420FD0E168606988420BD20199EF
:1034700048780123324604F12801FFF7D8FC10B147
:10348000012060745DE7E661A08AC0F30800C0F522
:103490000078A84500D9A846A18AC1F3080204F122
:1034A000280150184246009900F0FEF9207C40F0B7
:1034B0008000207400BFA5EB0805DBF80000404445
:1034C000CBF800000098404400906069404460617F
:1034D000E1686069884201D9606900E0E068E06005
:1034E000002D7FF441AF00BF207C40F040002074ED
:1034F000002026E72DE9FF4107460D46002138460A
:10350000FFF764F90646022E06D0032E00D21DB93D
:10351000304604B0BDE8F08100BF00240AE007F5A2
:10352000F77101EB041101F1080000F059F94DF8B1
:103530002400641C042CF2D30DB1681E00E00020AE
:10354000044600BF5DF8240028B15DF82410384619
:10355000FFF73CF900E0032006462DB9022E03D305
:10356000601C04460428EDD33046D2E72DE9F34130
:103570000446276802E00198401C019001980078F9
:103580002F28F8D0019800785C28F4D00020A060A3
:1035900001980078202808D280212B200155002195
:1035A0002046FFF7D4FB05462CE000BF01A92046CA
:1035B000FFF7F4F9054605B123E02046FFF70EFBBF
:1035C00005462B20065D3DB1042D04D100BF06F059
:1035D000040000B9052514E006F0040000B110E075
:1035E000A07900F0100008B905250AE0208AC0F390
:1035F000080207F130001118384600F0DEF8A0602C
:10360000D4E700BF2846BDE8FC81000070B5044641
:103610000D46E1B20548FEF74FFC00BF012103480B
:10362000FEF7F2FB0028F9D0204670BD00380140BB
:1036300010B5002821D0114B0022001F196803E0AB
:10364000814203D80A4649680029F9D152B113686A
:10365000841A9C4204D1006818441060104602E0AD
:10366000506000E0186039B102680B1A934203D130
:103670000B681A4402604968416010BD6000002078
:103680002DE9F04781460C46D9F80050022C02D3B0
:103690006869A04202D84FF001085EE04FF0FF38A1
:1036A0002878012804D002282CD0032851D13CE0EE
:1036B000264606EB5606286A00EB5621284600F0FF
:1036C0005DFA00B148E03046761CC0F3080105F110
:1036D0003000475C286A00EB5621284600F04EFA7D
:1036E00000B139E0C6F3080105F13000405C47EA5B
:1036F000002704F0010008B1380901E0C7F30B000E
:10370000804629E0286A00EB1421284600F036FAAA
:1037100000B121E040F2FF1101EA440205F130015D
:10372000501800F069F8804616E0286A00EBD411C2
:10373000284600F023FA00B10EE040F2FF1101EA42
:10374000840205F13001501800F04AF820F070486A
:1037500002E04FF0010800BF00BF4046BDE8F0871F
:103760000020014870470000A5904C2970B5044620
:103770004FF0FF3026683146324601B970BD00BFB8
:1037800012F8013B212B01D33A2BF9D13A2B11D15D
:1037900001250E78302E08DB0E78392E05DC8E1CC4
:1037A000964202D10E78A6F13005012D01DA2846A5
:1037B0002260E3E7002000BFE0E770B505460C4655
:1037C00004F11A0000F018F806462878032805D1FD
:1037D00004F1140000F010F846EA0046304670BDCF
:1037E0000146C8788A7842EA00204A7842EA0020F6
:1037F0000A7842EA00207047014648780A7842EA8F
:1038000000207047FDF79AF9FDF79EF8FEF712F9D0
:1038100001E0FEF7B1FAFCE7F0B50B30154D20F0F2
:1038200007010024144A0FE003688B420BD38B423C
:1038300005D95E1A43184768C3E9006700E043688A
:10384000136002C004E0021D10680028ECD120467D
:10385000002802D1286808B10020F0BD064A0748B8
:103860001060074A121A22F00702C0E90024012062
:103870002860D7E76400002060000020FC010020E1
:10388000F8030020F0B503461D460C46002000BF9B
:1038900015F8017B14F801CBA7EB0C00561E321E65
:1038A00001D00028F4D0F0BD30B503460C463AB143
:1038B00000BF14F8015B03F8015B551E2A1EF8D106
:1038C00030BD10B5034600BF03F8011B541E221E75
:1038D000FAD110BD2DE9F74F84B0002105980160A1
:1038E0000498FFF743FF03900398002803DA0B20A6
:1038F00007B0BDE8F08F9C49039851F820400CB9FF
:103900000C20F5E705980460069800F0FE0006908C
:10391000207878B16078FFF79BFA074607F001003E
:1039200040B9069820B107F0040008B10A20DFE78B
:103930000020DDE700202070039860706078FFF7BA
:1039400053FA074607F0010008B10320D0E70698B4
:1039500020B107F0040008B10A20C9E70021204681
:10396000FFF7C8FD0546042D01D10120C0E7022D57
:1039700001D30D20BCE7D4F82C9004F13B00FFF7F5
:103980003BFFB0F5007F01D00D20B1E704F1460008
:10399000FFF732FF064626B904F15400FFF720FF77
:1039A0000646A6614020005DA070A078012804D0E2
:1039B000A078022801D00D209AE7A07846433D2048
:1039C000005D6081608918B16089411E084008B1BE
:1039D0000D208DE704F14100FFF70EFF2081207AD2
:1039E00000F00F0008B10D2082E704F14300FFF75B
:1039F00003FF8246BAF1000F04D104F15000FFF733
:103A0000EFFE824604F13E00FFF7F6FE8346BBF16F
:103A1000000F01D10D206BE70BEB0600218900EBB5
:103A2000111002900298824501D20D2060E70298A1
:103A3000AAEB00006189B0FBF1F8B8F1000F01D1E9
:103A40000D2055E700254948804500D803254FF64D
:103A5000F570804500D8022540F6F570804500D805
:103A600001250DB90D2043E708F102006061C4F89B
:103A70001C9009EB0B00206202984844A062032DC1
:103A800013D104F15A00FFF7B7FE08B10D202FE75C
:103A9000208908B10D202BE704F15C00FFF7A0FEA0
:103AA000606260698000019014E0208908B90D20EF
:103AB0001EE7206A30446062022D02D16069400036
:103AC00007E0207D00F00100616901EB410100EB9E
:103AD00051000190A169019800F2FF10B1EB502F45
:103AE00001D20D2004E74FF0FF302061E06080201C
:103AF0002071032D2DD104F16000FFF77DFE012818
:103B000027D109F10101204600F038F808BB002058
:103B1000207104F22E20FFF76FFE4AF655218842ED
:103B200017D104F13000FFF75BFE1149884210D134
:103B300004F50570FFF754FE0E49884209D104F5DB
:103B40000670FFF74DFE206104F50770FFF748FE91
:103B5000E060257008480088401C80B20649088053
:103B6000E0800020C4E6000054000020F5FFFF0FB5
:103B700052526141727241615800002070B5044692
:103B80000D460026E06AA84210D0204601F098F8C1
:103B900006465EB9607801232A4604F13001FFF73A
:103BA00046F910B14FF0FF350126E562304670BD91
:103BB0002DE9F04704460D4616464FF00209022D46
:103BC00074D36069A84271D92078012804D00228F2
:103BD00049D003280DD15EE02F4607EB5707206A36
:103BE00000EB57212046FFF7C9FF8146B9F1000FCE
:103BF00000D075E038467F1CC0F3080104F13000A6
:103C000001EB000805F0010028B1F1B298F80000BE
:103C100061F31F1000E0304688F800000120E070DA
:103C2000206A00EB57212046FFF7A8FF8146B9F133
:103C3000000F00D054E0C7F3080104F1300001EB9D
:103C4000000805F0010010B1C6F3071006E098F86F
:103C5000000000F0F000C6F30321084388F80000DC
:103C60000120E0703CE0206A00EB15212046FFF7C0
:103C700085FF8146B9F1000F00D031E0B1B240F2CA
:103C8000FF1202EA450304F13002981800F0CAFF5F
:103C90000120E07024E0206A00EBD5112046FFF7F8
:103CA0006DFF8146B9F1000F01D019E019E040F233
:103CB000FF1101EA850204F130015018FFF790FD71
:103CC00066F31B00064640F2FF1101EA850204F18B
:103CD00030015018314600F099FF0120E07000BF1C
:103CE00000BF4846BDE8F0872DE9F04781460E4603
:103CF00017464FF00008D9F80040022E02D3606941
:103D0000B04202D80220BDE8F08767B100BF4FF093
:103D1000FF3239462046FFF74BFF8046B8F1000FCF
:103D200001D04046EFE700BF31464846FFF7A8FC08
:103D3000054605B922E0012D01D10220E3E7681C08
:103D400008B90120DFE7002231462046FFF730FFA7
:103D50008046B8F1000F01D04046D4E7D4E9041002
:103D6000801E814206D22069401C2061207940F0EB
:103D7000010020712E466069B042D5D800BF0020F6
:103D8000C1E700000146002009E0074A52F8202060
:103D90001AB9054A42F820107047421C10B2052893
:103DA000F3DB00BFF8E700006800002070B50446B0
:103DB0000D4694F86A0100F00300012836D002286D
:103DC00045D1412D06D0422D09D0432D0CD0442D94
:103DD00023D117E00021204600F0A4FC1EE00121C1
:103DE000204600F09FFC19E0208FE18E884208DA1F
:103DF000228F201D815C204600F0DCF8208F401CC3
:103E000020870BE0208F002806DD0821204600F0E7
:103E1000D1F8208F401E208700E000BF00BF94F83B
:103E20006A0120F0030084F86A0111E05B2D07D1DC
:103E300094F86A0120F00300801C84F86A0105E010
:103E400094F86A0120F0030084F86A0100E000BFE2
:103E500000BF70BD90F86A1121F00301491C80F881
:103E60006A11704770B50446E08E00B970BD208FAE
:103E7000E18E88420ED1E08E401EE086208F401EEB
:103E800020870021E28E201D81540121204600F070
:103E90006BF841E0208F00283EDD00200AE0218FF2
:103EA0000A18211D8B5C218F0144491E221D535489
:103EB000411C08B2E18E228F891A8142EFDCE08E2C
:103EC000401EE086208F401E20870021E28E201DAC
:103ED00081540821204600F06DF8208F05B206E0DD
:103EE000201D415D204600F065F8681C05B2E08E9B
:103EF000A842F5DC2021204600F05CF8E08E218FFE
:103F0000401A401C05B205E00821204600F052F896
:103F1000681E05B2002DF7DC00BFA7E710B500F062
:103F20001DFB044604B910BD02A1204600F02CF888
:103F300000BFF8E71B5B324A1B5B31480000000002
:103F400070B50446E08E218F401A05B205E02021AD
:103F5000204600F02FF8681E05B2002DF7DCE18E38
:103F6000204600F001F870BD70B505460C4603E030
:103F700004A1284600F008F8201EA4F101018CB22B
:103F8000F6D170BD0820080070B505460C46002625
:103F9000D5F8700108B9002070BD06E014F8010BD7
:103FA000D5F870118847701C86B220780028F5D1AA
:103FB0003046F1E770B504460D46D4F8700100B9FB
:103FC00070BD2846D4F87011884700BFF8E700009C
:103FD0002DE9F04105460C46D5F85C7107EB04105D
:103FE00001682846FFF7D0FFC0F1160006B2002E88
:103FF00001DD304600E00420064600BF0BA1284644
:10400000FFF7C2FF701E00B2061EF7D108A12846B6
:10401000FFF7BAFF07EB041081682846FFF7B4FFEB
:1040200004A12846FFF7B0FFBDE8F08120000000A2
:104030002D2D00000D0A00002DE9F05F044600253B
:1040400000274FF00108A946E08E28B920462168D4
:10405000FFF79AFFBDE8F09F0021E28E501CE0863A
:10406000201D8154204600F0C3FB002038E05FB9DA
:10407000211D095C20292CD0211D095C092928D08B
:10408000211D095C2C2924D0211D095C09B3211DA7
:10409000095C222904D10FB9012100E000210F465B
:1040A000B8F1010F0AD1211D0B1829466A1CD5B29F
:1040B00004F13C0242F821304FF00008211D095C58
:1040C0005C290BD1211D0144497839B1411C88B2CA
:1040D00004E00022211D0A544FF00108411C88B25F
:1040E000E18E8142C3DC0020E086208725B920468E
:1040F0002168FFF749FFADE72DA12046FFF744FFF8
:10410000D4F85C612BA1E06BFCF712F8B0B994F81D
:104110006A0120F00400001D84F86A0104F13C01EA
:10412000284600F08FFA94F86A0120F0040084F821
:104130006A0120462168FFF727FF8BE74FF0000B4D
:1041400023E006EB0B121168E06BFBF7F1FFC0B93F
:104150004FF0010994F86A0120F00400001D84F872
:104160006A0106EB0B1104F13C024868294600F095
:104170002FF9824694F86A0120F0040084F86A015D
:1041800007E00BF101001FFA80FBB4F8600158450D
:10419000D7DC00BFB9F1000F04D10848816920467F
:1041A000FFF7F2FE20462168FFF7EEFE00BF51E761
:1041B0000D0A000068656C700000000030000020EF
:1041C00010B50246114600200B78302B07D14B78F2
:1041D000782B02D04B78582B01D103200EE00B78BE
:1041E000302B07D14B78622B02D04B78422B01D178
:1041F000012003E00B78302B00D1022006E00B7881
:104200002E2B03D14B780BB1042003E011F8014BA6
:10421000002CF4D100BF10BD0246511C00200B78C9
:104220005C2B1AD14B786E2B0ED004DC302B0FD0C8
:10423000622B0FD104E0722B04D0742B0AD105E05D
:10424000082009E00D2007E00A2005E0092003E02E
:10425000002001E0487800BF00E0087870472DE9B1
:10426000F04F85B005464FF000094FF00A0A2C4682
:10427000CB460126002700200490804628782D2870
:1042800000D1B61E711C09B9012100E000214819B6
:10429000FFF796FF8146B9F1010F0FD0B9F1020F78
:1042A00007D0B9F1030F0DD14FF0100A4FF0020BF8
:1042B00009E04FF0080A4FF0010B04E04FF0020A4A
:1042C000D34600E000BF00BF05EB0B01701C08B92E
:1042D000012000E000200C1811E020782E2803D1E6
:1042E0004FF00108641C0AE0207800F01BF907FB7E
:1042F0000A0708EB88004FEA4008641C00BF2078DA
:104300000028EAD1B9F1040F1AD1B8F1000F17D083
:104310003046FBF78BFF03904046FBF790FF019080
:104320003846FBF78CFF00900199FBF741FF0290A4
:104330000399FBF70BFF0490049805B0BDE8F08FDC
:1043400007FB06F0F9E710B504462078272805D1C9
:10435000607818B12046FFF75FFF10BD20782D2848
:1043600005D02078302806DB2078392803DC204669
:10437000FFF775FFF1E7207818B1204600F003F849
:10438000EBE70020E9E770B50446254600262078D3
:10439000222802D1601C0446054613E028785C28D8
:1043A00005D1681EFFF738FFA0556D1C07E028787F
:1043B000222802D10020A05501E02878A0556D1CCC
:1043C000701C86B228780028E8D1A055204670BD20
:1043D0002DE9F04F85B005460E461446092E79D2D8
:1043E000DFE806F09D05090F1A2A3F597900A84712
:1043F00005B0BDE8F08F6068FFF7A5FF0746A84746
:10440000F6E7A068FFF79FFF07466068FFF79BFF8E
:1044100080463946A847EBE7E068FFF794FF074678
:10442000A068FFF790FF80466068FFF78CFF814629
:104430003A464146A847DBE72069FFF784FF074675
:10444000E068FFF780FF8046A068FFF77CFF8146A9
:104450006068FFF778FF82463B4642464946A847D8
:10446000C6E76069FFF76FFF07462069FFF76BFF3C
:104470008046E068FFF767FF8146A068FFF763FFAB
:1044800082466068FFF75FFF834643464A465146CF
:104490000097A847ACE7A069FFF755FF074660699A
:1044A000FFF751FF80462069FFF74DFF8146E06826
:1044B000FFF749FF8246A068FFF745FF8346606823
:1044C000FFF741FF4B4652465946CDE9008704901D
:1044D000A8478DE723E0E069FFF735FF0746A069AD
:1044E000FFF731FF80466069FFF72DFF81462069A5
:1044F000FFF729FF8246E068FFF725FF8346A068A3
:10450000FFF721FF04906068FFF71DFF53465A46EE
:10451000CDE90098CDE902700499A84768E74FF00B
:10452000FF3065E70146302905DB392903DCA1F1BD
:104530003000C0B27047612905DB662903DCA1F1B8
:104540005700C0B2F6E7412905DB462903DCA1F19B
:104550003700C0B2EEE70020ECE70000002111E0D8
:104560000A4850F8210058B1084850F8210090F846
:104570006A01C0F3800018B1044850F82100704768
:10458000481C01B20529EBDB0020F8E76800002099
:104590002DE9F04104460E4694F86A0100F003004C
:1045A00000283CD18046D4F86471002510E017F84B
:1045B0003500B0420AD107EBC500406820B107EBD7
:1045C000C5004168204688474FF00108681C05B2C5
:1045D000B4F86801A842EADCB8F1000F17D1002551
:1045E00013E0174810F83500B0420CD1144800EB26
:1045F000C500406828B1124800EBC500416820465C
:1046000088474FF00108681C05B2062DE9D3B8F1C0
:10461000000F03D13146204600F06AF903E031462D
:104620002046FFF7C3FB092E01D1012000E0002046
:1046300094F86A1160F3C30184F86A11BDE8F0814F
:10464000346D00082DE9F04107468846FFF786FFE4
:1046500005460DB9BDE8F081012F11D12A48016945
:104660002846FFF791FC002405E021462846FFF785
:10467000AFFC601C84B2B5F86001A042F5DC40E0FC
:10468000022F3ED1D5F85C61002430E006EB041225
:104690001168D8F80400FBF74BFD30BB1BA128467E
:1046A000FFF772FC06EB041001682846FFF76CFC6C
:1046B0001AA12846FFF768FC06EB0410816828461B
:1046C000FFF762FC16A12846FFF75EFC06EB04101C
:1046D000C06848B106EB0410C1682846FFF754FCD7
:1046E0000FA12846FFF750FCB4E7601CC4B2B5F830
:1046F0006001A042CADC044881692846FFF744FCF7
:1047000000BF00BFA6E7000030000020636F6D6DA2
:10471000616E642068656C70202D2D003A0D0A00D2
:104720000D0A000070B504460D4635BB04F5AB74A8
:10473000B4F9041088B2401E00B2A0802088B4F9F9
:104740000220A4F5AB74904202DDB4F8560101E0FA
:10475000B4F95801404281421EDCB4F85601B4F964
:104760005811884202DDB4F8560101E0B4F958014D
:10477000404200B2A4F85A010EE0012D0BD1B4F86A
:104780005A01401C00B2A4F85A01002804DD0020A0
:10479000A4F85A0170BDFDE72046FFF7D1FBB4F83D
:1047A0005A0118B90020E08620871FE0B4F95801AB
:1047B000401DB4F95A110844052190FBF1F201FBA8
:1047C000120000EBC00101EB001104F15C0000EBF2
:1047D00041063146201D00F07BF9E08600B9D9E79B
:1047E000E08E2087211D2046FFF7CEFB00BFD1E7DA
:1047F00010B504460020A4F85A01B4F95811491E16
:1048000001EBC10202EB011204F15C0101EB420079
:10481000211DFBF78DFC00B910BDB4F9581101EB57
:10482000C10202EB011204F15C0101EB4200211D07
:1048300000F04EF928B1B4F85801401C00B2A4F8B9
:104840005801B4F85601401C80B2A4F8560105285E
:1048500002DD0520A4F85601B4F95801052802DB51
:104860000020A4F8580100BFD6E7000010B50446A8
:104870000020E0862087A4F85601A4F85801A4F887
:104880005A0194F86A0120F0030084F86A0194F850
:104890006A0120F0040084F86A0194F86A0120F0AB
:1048A000080084F86A010CA020602046FFF76AFA2D
:1048B0000C4801682046FFF767FB20462168FFF798
:1048C00063FB0948C4F85C0108480749401AC0F373
:1048D0000F10A4F8600110BD0D0A4D4D33323E3E5D
:1048E0000000000030000020FC6F00081C70000871
:1048F00070B504460D4605B970BDE08E31284ADA20
:10490000E08E218F88420CD1E18E481CE086201D6C
:104910004554208F401C208729462046FFF74AFB3C
:1049200048E0E18E228F891A08B20AE0218F014403
:10493000491E221D525C218F0B18211DCA54411E95
:1049400008B20028F2DC218F481C2087201D455426
:104950000021E08E401C82B2E286201D8154208F0F
:10496000401E06B206E0201D815D2046FFF722FBB7
:10497000701C06B2E08EB042F5DCE08E218F401A4A
:1049800006B205E008212046FFF714FB701E06B2B0
:10499000002EF7DC0EE00848C1692046FFF7F4FA64
:1049A00020462168FFF7F0FA211D2046FFF7ECFAB8
:1049B000E08E208700BF9FE73000002000B587B061
:1049C00001210520FCF734FA01218803FCF730FAB5
:1049D00025208DF8140001208DF815008DF81600A3
:1049E0008DF8170005A8FCF7CFF901A8FDF767FAC5
:1049F0004FF4E13001903020ADF808000020ADF810
:104A00000A00ADF80C00ADF810001820ADF80E004B
:104A100001A91848FDF714FA012202211548FDF7F3
:104A200005FA01211348FDF7E3F906A8FBF77FFF1C
:104A30004FF40070ADF8180003208DF81A0018200C
:104A40008DF81B0006A90C48FBF7D4FE4FF48060DC
:104A5000ADF8180004208DF81B0006A90648FBF7E6
:104A6000C9FE06480649C1F870010846FFF7FEFE78
:104A700007B000BD0038014000080140854A000829
:104A80007C00002010B5044621460548FDF714FAC5
:104A900000BF01210248FDF7B7F90028F9D010BD89
:104AA0000038014030B502460B460020002108E0E6
:104AB000545C5D5CAC4200D008E0441CA0B24C1CCD
:104AC000A1B2545C14B15C5C002CF1D100BF30BDCC
:104AD0000246002003E00B5C1354431C98B20B5CAD
:104AE000002BF8D1135470472DE9F04704464FF0DE
:104AF000320A4FF000080025D4F85C71E08E0028DF
:104B000059D00021E28E201D8154002628E007EBB9
:104B100006100168201DFFF7C5FFE18E88421DD1F8
:104B2000C5B1012D03D12FA12046FFF72DFA414633
:104B30002046FFF74DFA07EB0612116807EB081243
:104B40001068FFF7AFFF8146CA4501DD484600E027
:104B5000504682461FFA86F8681C85B2701C06B261
:104B6000B4F86001B042D2DC0DB9BDE8F087012D88
:104B700002D12046FFF7E4F935B107EB08100168D0
:104B8000201DFFF7A5FFE086012D09DD41462046E7
:104B9000FFF71EFA20462168FFF7F6F9A4F836A0C1
:104BA0000021E28E201D8154E08E2087211D2046A9
:104BB000FFF7EAF914E094F86A0120F00400001D00
:104BC00084F86A0100210120FFF73CFD94F86A0196
:104BD00020F0040084F86A0120462168FFF7D4F928
:104BE00000BFC2E70D0A000070B506460C46154628
:104BF000A9B204F11A0000F015F83078032804D1A6
:104C0000290C04F1140000F00DF870BD00F8011B30
:104C1000090A00F8011B090A00F8011B090A00F83B
:104C2000011B704700F8011B091200F8011B7047B7
:104C300070B50446204600F043F80546002D38D1F3
:104C4000207803282ED1207901282BD1420200217F
:104C500004F13000FEF735FE4AF6552104F22E200D
:104C6000FFF7E0FF144904F13000FFF7CFFF1349CD
:104C700004F50570FFF7CAFF04F506702169FFF718
:104C8000C5FF04F50770E168FFF7C0FFE069401C4D
:104C9000E0626078012304F13001E26AFEF7DEF899
:104CA00000202071607800221146FEF7A0F800B1C4
:104CB0000125284670BD0000525261417272416167
:104CC00070B504460025E078E8B16078012304F16E
:104CD0003001E26AFEF7C2F8A0B90020E070216A54
:104CE000E06A401AA16988420DD2A07802280AD150
:104CF000A369E16ACA186078012304F13001FEF764
:104D0000ADF800E00125284670BD70B504460D469B
:104D100009268CB1206878B12068007860B1A0883D
:104D20002168C988884207D121684878FEF790F841
:104D300000F0010000B900260EB9206800E0002054
:104D40002860304670BDFFD8FFE000104A46494653
:104D500000010101006000600000FFDB004300086B
:104D60000606070605080707070909080A0C140DB7
:104D70000C0B0B0C1912130F141D1A1F1E1D1A1CDD
:104D80001C20242E2720222C231C1C2837292C30C1
:104D9000313434341F27393D38323C2E333432FF1E
:104DA000DB0043010909090C0B0C180D0D18322109
:104DB0001C213232323232323232323232323232FA
:104DC00032323232323232323232323232323232C3
:104DD00032323232323232323232323232323232B3
:104DE00032323232FFC000110800F000F00301221D
:104DF00000021101031101FFC4001F0000010501A1
:104E00000101010101000000000000000001020397
:104E10000405060708090A0BFFC400B510000201CB
:104E20000303020403050504040000017D010203DD
:104E3000000411051221314106135161072271143A
:104E4000328191A1082342B1C11552D1F0243362BD
:104E50007282090A161718191A25262728292A34B2
:104E600035363738393A434445464748494A53541A
:104E700055565758595A636465666768696A73740A
:104E800075767778797A838485868788898A9293FC
:104E90009495969798999AA2A3A4A5A6A7A8A9AA1B
:104EA000B2B3B4B5B6B7B8B9BAC2C3C4C5C6C7C839
:104EB000C9CAD2D3D4D5D6D7D8D9DAE1E2E3E4E56A
:104EC000E6E7E8E9EAF1F2F3F4F5F6F7F8F9FAFFC4
:104ED000C4001F01000301010101010101010100E2
:104EE00000000000000102030405060708090A0B80
:104EF000FFC400B511000201020404030407050405
:104F00000400010277000102031104052131061299
:104F100041510761711322328108144291A1B1C13C
:104F200009233352F0156272D10A162434E125F1B7
:104F30001718191A262728292A35363738393A43B7
:104F40004445464748494A535455565758595A6359
:104F50006465666768696A737475767778797A824A
:104F6000838485868788898A929394959697989961
:104F70009AA2A3A4A5A6A7A8A9AAB2B3B4B5B6B786
:104F8000B8B9BAC2C3C4C5C6C7C8C9CAD2D3D4D5B2
:104F9000D6D7D8D9DAE2E3E4E5E6E7E8E9EAF2F3DE
:104FA000F4F5F6F7F8F9FAFFDA000C030100021144
:104FB0000311003F00F7FA28A2800A28A2800A28DD
:104FC000A2800A28A2800A28A2800A28A2800A2891
:104FD000A2800A28A2800A28A2800A28A2800A2881
:104FE000A2800A28A2800A28A2800A28A2800A2871
:104FF000A2800A28A2800A28A2800A28A2800A2861
:10500000A2800A28A2800A28A2800A28A2800A2850
:10501000A2800A28A2800A28A2800A28A2800A2840
:10502000A2800A28A2800A28A2800A28A2800A2830
:10503000A2800A28A2800A28A2800A28A2800A2820
:10504000A2800A28A2800A28AC3D6FC61A07876E84
:10505000AD2D353D4A186EAEE548A18339762C70EA
:10506000090390BFED1E2803728AE3BC4DF12B4566
:10507000F0A7886CF43D420BE7BCBC44787C889573
:1050800095B73150325873915D5BDD5BC77315B3D3
:10509000CF12DC4AACD1C45C0670B8C903A90323A3
:1050A0003F5140135145140051451400514514001F
:1050B0005145140051451400514514005145140048
:1050C00051451400514514005145140052332A2310
:1050D0003BB055519249C00296BCDBE237C4FD2F6C
:1050E000C1BAD59E89AA6986FECEFAD9DEE829041E
:1050F000AC64ED1F21E181C382091401D069FE2C4B
:10510000B3F19689AC1F0A6A11B5E5A99208E47556
:105110000544A07C8D8EE84F43DF06BCCBC39E3C8C
:10512000F1337C24F186B7AA6A121D5ACAEBC989E9
:10513000DE345F258845002E31C331E3153785B451
:105140006D3B4BD7D7C57F0D7515BFD26601353D79
:1051500014C9FBD8E327AA2B7395EA037270402782
:1051600038AE9F59F015B5F1D56C239D22B0F11ED4
:10517000A36F77326EDAC420DF2AA8E092DB01F653
:105180002C4F6A00D3F859AD7893C43E0D8754F183
:105190001ADB89276CDB98E228CF18E37B0CE32429
:1051A000E71800631EB5DB54704115B5BC70411A99
:1051B000C70C4A11114602A818000F4C549400570E
:1051C0009DFC56F86F178DF4717564AB1EB966A41B
:1051D000DB499DBE68EBE5B1FE47B1F626BD128AFC
:1051E00000F19D474E7F18F883E18EB93C2EB70B36
:1051F0002491DF2B0C149611BCA9F4C3C720ACCFAB
:105200001268F7BF10FE285C6A6F7EFA5F863C3A30
:105210007ECEFA9097CBF9D0E64F2DB3C36E246EB5
:10522000E8028EF805D0FC6E9627BABD9B4BD1EEF6
:10523000ED12E647896DAECC570AB928AE5183020C
:10524000C571D08CE7F0AF40D5BE1C69BE2682DAAE
:105250001D52EAFD34D85418B4AB790450A9EA4B76
:10526000606E76CF72DD73EA6A6338CAF6E828C9E1
:105270004B62D783BC7FA0F8C6E750B3D1A6964F48
:10528000ECF2AA5E50419548E1D73C9190473CFE34
:1052900075D6D73BE1DF02F867C292B4BA26930D08
:1052A000ACCC9B1A50CCEE57838DCC49C703F2AEE1
:1052B0008AA86145145001451450014515E7DE33B5
:1052C000F88F2E8FAC27877C3B609AA6BAC9BE5454
:1052D00076222B54ECD211EB91C64751EA320D26BF
:1052E000DD91E834578F5C788BE23449E7C3A9E855
:1052F000934CB86FB27D8D951BD543EECF3EF8FC35
:105300002BB9F0378CED7C67A335C2C46DAFEDDFF0
:10531000CABDB262775BC9CF07207071C1FA8EA097
:10532000D4A927B17528D4A76E756B9D4514515427
:10533000661451450014514500145145001451455F
:10534000001552EB4AD3AF98B5DD85ADC315DA4CE5
:10535000B0AB923D391D2ADD14018F1F85F43B4906
:10536000FED763A2E976D7A8A445709668193F10C6
:1053700001C7B6457CD1ADDF789078BA46D4AE2768
:105380003E25D32E033DDCD27EEE1C1250431AF193
:10539000B1970791C826BEAFAF28F8CBE107BAB2E4
:1053A0008FC57A7479BBB04DB791A8E66B7EA4FD2A
:1053B00053AFD33EC2B2AD19387B9BA3A706B0EF63
:1053C000110FACDF92FAD9DBFA5DCED7C13E2CB615
:1053D000F19786A0D4E10239C1F2AEA0EF0CC3EF81
:1053E0002FF51EC457412489146D248EA88A325982
:1053F0008E00AF947C3DE3BBEF016B0FA9D9C09346
:105400005BEA306D6B39242A66C0FDDCD8C7CA015F
:10541000E39E48278EF5CFF89FC67E20F18DC1937D
:105420005ABF79210D98ED623B218FD30A3A9F73C1
:1054300093EF4E94F9E0A4462614E9D69429CB9A2A
:1054400029E8D753EA0D43E2A781B4C72B71E25B89
:105450002623AFD9CB4FFF00A2C3573FAEFC6BF062
:105460004B787F525D335BF36FCDACBF678FECB38E
:1054700026E9369DA32C800E71DEBE610AAA721445
:105480000FA0A5AD0C2E75BE1D834ED4B5CF0E69F1
:10549000A925BBABDEC09312467629DCDD7D707F8B
:1054A0003AFB02BE1031A3672A39F6AEB3C2DF1150
:1054B000FC53E10745B0D45EE2CD4F365764C919BD
:1054C0001E8B9E57F022B3A74FD9AB26766371AFE0
:1054D00017514E492B24ACBC8FB0E8AE23C03F130C
:1054E000748F1DDBB4512B59EA912EE9ACA56C9C4D
:1054F0007F790FF12FBF04771D2BB7AD0E40A28A25
:105500002800AA3AB6B1A7685A7C97FAADEC36964D
:10551000A9F7A495B033E83D4FB0E6B27C6BE34DFC
:105520003FC13A21BFBC0D2CF21F2ED6D53EFCF256
:105530007651E83D4F6FAE01F32B1F0FEABE2AD420
:1055400023F1078E1C4D30F9AD34B1FEA2D41F55A6
:10555000EEDF5CFBE7B26EC5C20E6EC8DBB9F8A524
:10556000AE6B8DB3C17E1B696D89F9752D5098A105
:1055700061EAA83E661EF9FC2B3BC2DE1DBFD2E3EA
:10558000D52FB5892DE6D5F52BA69EE258325707C3
:10559000A28C8070096E3DFDABAA0028000000E0DF
:1055A00001DA96B3949B563B695254DF3753205A25
:1055B000B9973EF9AE6135BB3F017C6286FEFA4386
:1055C0006BA56ADA7F97732ED253CD0C70481DC637
:1055D000D519EC18D77B81E82ABDFE9F67AA5A3DF2
:1055E000ADF5B457103FDE8E45C8FF00F5FBD44142
:1055F00072BB9BE266EBC6CCF40B7B886EEDE3B826
:10560000B6952686550F1C91B065653D0823A8A95F
:105610006BC1AC6FB54F843A8892369EFF00C19340
:10562000C9FBD849DD258B13F797DBF43D0F3827ED
:10563000DCACAF6DB51B286F6CE649EDA741245279
:1056400021C8653C822B74EE79528B8BB327A28ADA
:10565000299214514500145145001451450014512C
:10566000450015CD78F3C556DE0DF085EEAD70AB77
:105670002385F2E085BA4B2B7DD5FA7527D81AE938
:105680006BE69F8FBE237D4FC636FA0C4E7ECBA5B0
:10569000C61E450783338CFE8BB7F33401E4C0127A
:1056A000CD232A8772490A3017D80EC29D4514C9E6
:1056B0000A28A2800A28A28026B3BCBAD3AFA0BE13
:1056C000B29DEDEEEDDC3C52C670548FF3D3BD7D40
:1056D00067F0D3C77178EBC39F68902C5A95A911D6
:1056E0005E42BD0363871FECB751F88ED5F2357665
:1056F000DF09FC48FE1BF883A7B3391697EC2CEEA4
:1057000017B7CE7E43F83E39F42681A3EB7AE5073E
:10571000C49F093C97489AC2335B40F70E7CA70AA6
:10572000C89C31462A15F9FEE93589E3DF13EACF33
:10573000E20B6F076832C76B73716A6EAF6F9D4380
:105740009820C95C2A9E0B13EBD3F1C8F32D5BE1C3
:105750007EA173650AB7896EAF92D5711DB4C980F9
:105760005001F2290C719DAA3F2F4A97248D614A5E
:10577000525748D9D1A5BBF1B789DFC61A859DC557
:10578000D4982348D3215DC6DE1C901DB242AB36AF
:1057900009058804E48ED8EC6683C5F1C6F2278536
:1057A000E290282420D490337B636E33F8FE355F7B
:1057B000E07C9AE49E169CEAB6490DBB3ABDBCDB80
:1057C0005434C4EEDD9C1E8A0228040C608ED81E60
:1057D0009ECCA885DD82AA8C924E0014B953DC6A57
:1057E000ACA2AD13CC747D721D5CDC42609ED2FA1B
:1057F000D1825D59DC26D9216232323B83D411C17A
:10580000156B52D46D748D3A7BFBE94456D02EE76C
:10581000723381F4F5CD7356BAB43E25F8C1AD6A42
:10582000DA530974AB6B04B26B843F24D3060D9535
:105830003DF0370CFD3B115ADE2AD017C4FE1DB9CE
:10584000D25AE4DB79C50F9A1376DDAC1BA6467AF3
:105850007AD434933AE1394A17EA6A5BCE9756B163
:105860005C459F2E540EB9183823238A969A88B126
:10587000C6A8830AA0003D00A7549A11CF0457364A
:10588000F2413C6B2432294746190C0F506B03E15F
:10589000E5ECDE0CF16CBE09BA95DB4ABD0F73A3D3
:1058A000C8ED9D8472F0E7F33FAF56AE8EB9BF1AD4
:1058B000E9D3DD687F6FB03B753D2E45BEB37032D6
:1058C00077C7CEDF7C80463E9551766655A1CD1FC9
:1058D00033D828ACFD0F56B7D7B42B1D5AD4FEE2EF
:1058E000EE159946738C8CE0FB83C1FA56856A707D
:1058F00005145140051451400579E78CFE262E8190
:10590000A84FA559DA335E40519E59B1E5ED3B5B96
:10591000800E4E41C76EF8ED9F43AF2FF887F0FF22
:105920000052D6F58FED6D2122964961114B1C92E4
:10593000EC2A47465CF1E9DC74F7ACAB39A8FB878D
:10594000A196470D2C45B13F0FE17F3363C2FF00A5
:1059500010A3D5DE68754862B292380DC6F59094F2
:10596000DA1829073D08247AE735D6D86A565AA4AA
:105970002D358DCC73C6ADB4B21C807AE3F515E23B
:105980009E13D01CF8C3FB175A559BE46824589803
:10599000858C2AEE18231DC7EB5EC76B689A158CA1
:1059A00076D696E5ECE3E0246BF3A8EE4FF7BF9FC5
:1059B000D6B1C3D69D4BDF65A79DCE6C6CE8BC44C9
:1059C000BEAFF02FCFCBC8D3AF8B7C6776D7DE3E90
:1059D000F115CB124B6A332A93FDD572ABFA015FF6
:1059E00067433C57308961915D0F420D7C5FE30B4B
:1059F00057B2F1CF886DDC1CAEA539191D4172413B
:105A0000FC4115D68E7E8635145755E02F06FF00D3
:105A1000C269AD4F6B25DB5ADB5B442595D14166EE
:105A2000C9C0519E9DCE79E94C126DD91CAD15D3DC
:105A300078E7C157BE08BE459A4375613FFA8BA50A
:105A40004DB93DD5867823F51CFA81A7E1BF851EA7
:105A500022F105B43792F91A759CCA1D1E73B9D983
:105A60004F42107F52295D0F9257B1C354F63657FB
:105A70007AA5C8B7D3AD27BB98FF000411973FA7FD
:105A80004AF7DD17E0DF86B4D08F7E27D527039352
:105A90003B6D8F3EC8B8FC8935DE59D8DA69F6EB24
:105AA0006F656B0DB42BD2386308A3F0149C8D1571
:105AB00017D4F05D13E0C7887500B26A7341A5C2C0
:105AC0007AA93E6CB8FA03B47E27F0AEA3C43F0DAA
:105AD000B42F0B781B53BFB413CDA95B46B34777E4
