:020000040800F2
:1000000090060020A1010008BD0500087505000844
:10001000B905000873030008A70C000800000000E1
:100020000000000000000000000000009907000828
:1000300075040008000000004D060008B108000823
:10004000BB010008BB010008BB010008BB010008A0
:10005000BB010008BB010008BB010008BB01000890
:10006000BB010008BB010008BB010008BB01000880
:10007000BB010008BB010008BB010008BB01000870
:10008000BB010008BB010008BB010008BB01000860
:10009000BB010008BB010008BB010008BB01000850
:1000A000BB010008BB010008BB010008BB01000840
:1000B000BB010008BB010008BB010008BB01000830
:1000C000BB010008BB010008BB010008BB01000820
:1000D000BB0100081D090008A50900082D0A000839
:1000E000BB010008BB010008BB010008BB01000800
:1000F000BB010008BB010008BB010008BB010008F0
:10010000BB010008BB010008BB010008BB010008DF
:10011000BB010008BB010008BB010008BB010008CF
:10012000BB010008BB010008BB010008BB010008BF
:10013000BB010008BB010008BB010008BB010008AF
:10014000BB010008BB010008BB010008BB0100089F
:10015000BB010008BB010008BB010008BB0100088F
:10016000BB010008BB010008BB010008BB0100087F
:10017000BB010008BB010008BB010008BB0100086F
:10018000BB010008BB010008DFF810D000F01AF82E
:1001900000480047150F0008AFF3008090060020CC
:1001A0000648804706480047FEE7FEE7FEE7FEE711
:1001B000FEE7FEE7FEE7FEE7FEE7FEE7B50800081C
:1001C00089010008064C074D06E0E06840F0010395
:1001D00094E8070098471034AC42F6D3FFF7D8FFF5
:1001E000181000083810000821B1826842F001029E
:1001F000826003E0826822F00102826070470000A2
:100200000021084A1168084A1140D0E900231A4326
:1002100083681A43C3681A431143044AC2F804139B
:100220007047000004230140E030FCFF0020014043
:1002300021B1826842F48072826003E0826822F415
:1002400080728260704721B1826842F400728260DD
:1002500003E0826822F400728260704730B5024683
:10026000002000235068104C20400D790C6844EAAF
:1002700005242043506090680C4C2040D1E9035481
:100280002C438D682C434D7944EA4504204390600B
:10029000D06A20F470000C7D641EE4B2234340EA6F
:1002A0000350D06230BD0000FFFEFFFCFDF7FFC031
:1002B000F0B504460D4600200021092D11DDE0684F
:1002C000A5F10A0606EB4607072606FA07F188435A
:1002D000A5F10A0606EB460603FA06F10843E060BC
:1002E0000CE0206905EB4507072606FA07F188436D
:1002F00005EB450603FA06F108432061072A0FDAE9
:10030000606B561E06EB86071F2606FA07F1884328
:10031000561E06EB860605FA06F10843606322E0E6
:100320000D2A0FDA206BD61F06EB86071F2606FA6A
:1003300007F18843D61F06EB860605FA06F1084347
:10034000206310E0E06AA2F10D0606EB86071F2687
:1003500006FA07F18843A2F10D0606EB860605FAB8
:1003600006F10843E062F0BD816841F080418160A0
:10037000704700BFFEE700000246094B9A4201D2D7
:10038000084801E00648103801F000531BB1064B45
:100390000B40C36002E0044B0B40836070470000D9
:1003A00010640240006002407D0F7D0F21B10268A1
:1003B00042F00102026003E0026822F001020260E2
:1003C0007047014600200A6802F001020AB10120CC
:1003D00000E000207047000030B503460A460020C8
:1003E00000240B4DAB4201D20A4901E00849103903
:1003F00002F000550DB14C6800E00C68064D2C4031
:1004000004EA02050DB1012000E0002030BD00002B
:1004100010640240006002407D0F7D0F10B5002285
:100420000268134B1A40CC680B6823434C69234382
:100430008C692343CC6923430C6A23434C6A2343CE
:100440008C6A23434C6B23438C6B23431A43026017
:10045000426922F00702D1E90B3423431A43426177
:100460000B6943604B6883608B68C36010BD0000FC
:100470003F801CF07047F0B50A460021002300249D
:1004800000BF3DE0012505FA01F3156805EA030404
:100490009C4234D105684F000326BE40B543056039
:1004A00015794E00B5400668354305601579012D74
:1004B00002D01579022D16D185684F000326BE4063
:1004C000B543856055794E00B540866835438560F3
:1004D000456801268E40B5434560456896798E4053
:1004E000B6B235434560C5684F000326BE40B543EC
:1004F000C560D5794E00B540C6683543C560491C16
:100500001029BFD3F0BDF0B5002300244D07ED0E38
:1005100002FA05F3CE1000F1200555F826504E07DB
:10052000F70E0F26BE40B543CF1000F1200646F867
:100530002750CE1000F1200555F8265045EA030457
:10054000CE1000F1200545F82640F0BD41837047EC
:100550000183704710B505490548FFF73DFF18B105
:1005600002490348FFF708FF10BD000020000010FB
:100570001064024000BFFEE71CB50121084600F0F0
:1005800067F84FF40040009001208DF8040000202F
:100590008DF8060003208DF8050001208DF8070076
:1005A00069460448FFF767FF4FF400410148FFF731
:1005B000CFFF1CBD0000024000BFFEE770470000F7
:1005C00070B5002100230F22C4781CB3174C246897
:1005D00004F4E064C4F5E064C4F30721C1F1040449
:1005E000E3B20A4144789C40E1B28478144021434C
:1005F0000C07210E0E4C05786155047804F01F0598
:100600000124AC4005786D11AD0005F1E025C5F879
:10061000004109E0047804F01F050124AC40054DB9
:100620000678761145F8264070BD00000CED00E01C
:1006300000E400E080E100E002490143024A116069
:10064000704700000000FA050CED00E07047000064
:1006500029B1064A12680243044B1A6004E0034AB7
:1006600012688243014B1A60704700003038024024
:1006700029B1064A12680243044B1A6004E0034A97
:1006800012688243014B1A607047000040380240F4
:1006900029B1064A12680243044B1A6004E0034A77
:1006A00012688243014B1A607047000044380240D0
:1006B000F0B5002100220024022500260223324F3B
:1006C0003F6807F00C0121B1042905D0082937D172
:1006D00005E02E4F076036E02D4F076033E02A4FCC
:1006E0003F1F3F68C7F38056274F3F1F3F6807F003
:1006F0003F036EB1264FB7FBF3F7DFF88CC0ACF1C8
:10070000040CDCF800C0CCF3881C07FB0CF40CE0F4
:100710001E4FB7FBF3F7DFF870C0ACF1040CDCF848
:1007200000C0CCF3881C07FB0CF4174F3F1F3F6839
:10073000C7F301477F1C7D00B4FBF5F7076002E0BB
:10074000124F076000BF00BF0F4F3F6807F0F00176
:100750000909104F7A5C0768D74047600A4F3F6825
:1007600007F4E051890A0B4F7A5C4768D7408760ED
:10077000054F3F6807F46041490B064F7A5C4768B4
:10078000D740C760F0BD0000083802400024F400E4
:1007900000127A0028000020704700000CB50020ED
:1007A000019000903448006840F48030324908607D
:1007B00000BF3148006800F4003000900198401CF0
:1007C0000190009818B90198B0F5A04FF1D12A48CE
:1007D000006800F4003010B10120009001E000201A
:1007E00000900098012846D123484030006840F02E
:1007F00080502149403108602048006840F4404062
:100800001E4908601C48083000681B490831086010
:100810000846006840F4004008600846006840F45C
:10082000A05008601648091F0860081F006840F0C3
:100830008070091F086000BF0F48006800F000705A
:100840000028F9D040F205700E4908600A480830C7
:10085000006820F003000849083108600846006875
:1008600040F00200086000BF03480830006800F054
:100870000C000828F8D10CBD003802400070004080
:1008800008544007003C0240042808D14FF0E02102
:10089000096941F004014FF0E022116107E04FF0D7
:1008A000E021096921F004014FF0E0221161704755
:1008B0007047000010B51548006840F470001349F7
:1008C00008601348006840F00100114908600020EA
:1008D0000F49083108600E4800680E4908400C496D
:1008E00008600D48091D0860081F006820F480207A
:1008F000091F0860002006490C310860FFF74EFF11
:100900004FF0006001498039086010BD88ED00E0BB
:1009100000380240FFFFF6FE1030002410B540F210
:1009200025511D4800F0FDF810B31B4800F0B2F946
:10093000C4B21A48008800F40040C8B917480088BB
:1009400000F4804060B10A2C03D0002013490880D5
:1009500020E01248008840F400401049088019E067
:100960000D2C06D10D48008840F480400B490880CA
:1009700010E00A480088C0F30D0009490C540748EC
:100980000088401C0549088008460088C72801DD0A
:100990000020088010BD000000100140220000204F
:1009A0003800002010B540F225511D4800F0B9F87C
:1009B00010B31B4800F06EF9C4B21A48008800F466
:1009C0000040C8B91748008800F4804060B10A2C84
:1009D00003D000201349088020E01248008840F42A
:1009E00000401049088019E00D2C06D10D48008800
:1009F00040F480400B49088010E00A480088C0F3AA
:100A00000D0009490C5407480088401C054908801E
:100A100008460088C72801DD0020088010BD0000BE
:100A200000440040240000200001002010B540F2E6
:100A300025511D4800F075F810B31B4800F02AF945
:100A4000C4B21A48008800F40040C8B917480088AA
:100A500000F4804060B10A2C03D0002013490880C4
:100A600020E01248008840F400401049088019E056
:100A70000D2C06D10D48008840F480400B490880B9
:100A800010E00A480088C0F30D0009490C540748DB
:100A90000088401C0549088008460088C72801DDF9
:100AA0000020088010BD0000004800402600002003
:100AB000C801002010B504462146054800F0EFF8B3
:100AC00000BF8021024800F01FF80028F9D010BDB7
:100AD0000048004070B504460D4603E014F8010BD1
:100AE000FFF7E8FF281EA5F101018DB2F6D170BD18
:100AF00021B1828942F40052828104E082894DF65C
:100B0000FF731A408281704702460020B1F5007FD2
:100B100000D100BF13880B400BB1012000E0002082
:100B2000704770B50246002400230025002040F6DF
:100B30006A16B14200D100BFC1F3421501F01F0394
:100B4000012606FA03F3012D02D19689334006E00F
:100B5000022D02D1168A334001E0968A33400C12EE
:100B6000012606FA04F41688344013B10CB10120B2
:100B700000E0002070BDF0B50346002400260025EB
:100B8000002040F66A17B94200D100BF1846C1F3F1
:100B9000421401F01F06012707FA06F5012C01D1C6
:100BA0000C3004E0022C01D1103000E014301AB1F6
:100BB00007682F43076002E00768AF430760F0BD96
:100BC0002DE9FF4705460E460024A14600BFA0467A
:100BD000B08900B100BF2C8A24F44054F08804434B
:100BE0002C82AC8941F20C608443B088318908437F
:100BF000718908430443AC81AC8A24F44074B08901
:100C00000443AC826846FFF753FD2048854202D07A
:100C10001F48854202D1DDF80C9001E0DDF8089014
:100C2000A88900F4004040B109EBC90000EB0910AD
:100C300031684900B0FBF1F707E009EBC90000EBB0
:100C4000091031688900B0FBF1F76420B7FBF0F0C0
:100C500004012009642101FB1078A88900F40040F8
:100C600040B1322000EBC800B0FBF1F000F007000B
:100C7000044308E0322000EB08106421B0FBF1F0DF
:100C800000F00F0004432C81BDE8FF8700100140F5
:100C90000014014001468888C0F308007047C1F382
:100CA00008028280704700BFFEE702E008C8121FFA
:100CB00008C1002AFAD170477047002001E001C145
:100CC000121F002AFBD1704700B58DB001210846E4
:100CD000FFF7BEFC01210420FFF7BAFC0121080246
:100CE000FFF7D6FC00F07CF803208DF830001020D0
:100CF0000B9000208DF833000BA93648FFF7BBFBA3
:100D000003208DF8300020200B9000208DF8330058
:100D10000BA93048FFF7AFFB03208DF830004020CF
:100D20000B9000208DF833000BA92B48FFF7A3FB95
:100D300003208DF8300080200B9000208DF83300C8
:100D40000BA92548FFF797FB0020099007904FF467
:100D50008030089000200A9007A8FFF751FA002081
:100D6000019001208DF808008DF809000020039003
:100D7000059004208DF8180001A91848FFF76EFAB5
:100D800001211648FFF730FA072303220E211348EA
:100D9000FFF78EFA072304220F211048FFF788FA85
:100DA0000723012206210D48FFF782FA07230222BA
:100DB00019460A48FFF77CFA0848FFF7D5FA0121DF
:100DC0000648FFF740FA01210448FFF731FA0DB059
:100DD00000BD000000080240000002400020014069
:100DE00000B58FB001218805FFF732FC00BF16481F
:100DF000FFF7E7FA0028FAD1009014480190144850
:100E000002900020039004200490002005904FF4ED
:100E100080600690400007908000089000010A90D2
:100E20004012099000200B9001200C9000200D90A2
:100E30000E9069460448FFF7F1FA01210248FFF7D6
:100E4000B5FA0FB000BD0000106402404C20014014
:100E50001600002010B504466FF00400FFF714FDE3
:100E6000E11704EB5171C1F3C701074A1170104635
:100E7000007800EB4001C1EBC0104FF6FF7101EAB2
:100E8000C0000249088010BD1E0000202000002084
:100E900070B504464FF4077094FBF0F0C6B24FF4FF
:100EA000077094FBF0F100FB114085B205E04FF4B0
:100EB000077000F009F8701EC6B2002EF7D115B108
:100EC000284600F001F870BD0146114A12884A43D5
:100ED0004FF0E0235A6100229A611A46126942F0EB
:100EE00001021A6100BF4FF0E022106900F0010218
:100EF0001AB100F48032002AF5D04FF0E0221269D6
:100F000022F001024FF0E0231A6100229A6170473B
:100F1000200000204FF4A060FFF78EFBA820FFF711
:100F200099FFFFF729FBFFF7CFFE4FF4E13000F008
:100F30001DF814210B48FFF7CDFD11E04FF40041DF
:100F40000948FFF705FB0220FFF7A2FF4FF400411D
:100F50000548FFF7FBFA0220FFF79AFFFFF7FAFABE
:100F6000ECE70000000000200000024010B588B04F
:100F7000044601210220FFF76BFB01218804FFF7E3
:100F800077FB07220A212248FFF7BDFA07220B212F
:100F90001F48FFF7B8FA4FF44060069002208DF822
:100FA0001C008DF81D0000208DF81E0001208DF81A
:100FB0001F0006A91648FFF75EFA02940020ADF85C
:100FC0000C00ADF80E00ADF81000ADF814000C20C8
:100FD000ADF8120002A90F48FFF7F2FD27208DF8A7
:100FE000040003208DF805008DF8060001208DF81F
:100FF000070001A8FFF7E4FA012240F22551054855
:10100000FFF7B9FD01210348FFF772FD08B010BDDD
:101010000004024000480040381000080000002092
:1010200038000000AA0C00087010000838000020EA
:1010300058060000BA0C0008010203040506070860
:10104000090A0B0C0D0E0F10111213000000000006
:101050000000000000000000000000000000000090
:10106000000000000102030401020304060708094E
:040000050800018965
:00000001FF
